{"abi":[{"type":"constructor","inputs":[{"name":"name_","type":"string","internalType":"string"},{"name":"symbol_","type":"string","internalType":"string"},{"name":"metadataURI_","type":"string","internalType":"string"}],"stateMutability":"nonpayable"},{"type":"function","name":"allowance","inputs":[{"name":"owner","type":"address","internalType":"address"},{"name":"spender","type":"address","internalType":"address"}],"outputs":[{"name":"","type":"uint256","internalType":"uint256"}],"stateMutability":"view"},{"type":"function","name":"approve","inputs":[{"name":"spender","type":"address","internalType":"address"},{"name":"value","type":"uint256","internalType":"uint256"}],"outputs":[{"name":"","type":"bool","internalType":"bool"}],"stateMutability":"nonpayable"},{"type":"function","name":"balanceOf","inputs":[{"name":"account","type":"address","internalType":"address"}],"outputs":[{"name":"","type":"uint256","internalType":"uint256"}],"stateMutability":"view"},{"type":"function","name":"buy","inputs":[{"name":"amount","type":"uint256","internalType":"uint256"}],"outputs":[],"stateMutability":"payable"},{"type":"function","name":"calculateToken","inputs":[{"name":"amount","type":"uint256","internalType":"uint256"}],"outputs":[{"name":"","type":"uint256","internalType":"uint256"}],"stateMutability":"view"},{"type":"function","name":"calculateTokenSell","inputs":[{"name":"amount","type":"uint256","internalType":"uint256"}],"outputs":[{"name":"","type":"uint256","internalType":"uint256"}],"stateMutability":"view"},{"type":"function","name":"decimals","inputs":[],"outputs":[{"name":"","type":"uint8","internalType":"uint8"}],"stateMutability":"pure"},{"type":"function","name":"getCurrentPrice","inputs":[],"outputs":[{"name":"","type":"uint256","internalType":"uint256"}],"stateMutability":"view"},{"type":"function","name":"metadataURI","inputs":[],"outputs":[{"name":"","type":"string","internalType":"string"}],"stateMutability":"view"},{"type":"function","name":"name","inputs":[],"outputs":[{"name":"","type":"string","internalType":"string"}],"stateMutability":"view"},{"type":"function","name":"owner","inputs":[],"outputs":[{"name":"","type":"address","internalType":"address"}],"stateMutability":"view"},{"type":"function","name":"renounceOwnership","inputs":[],"outputs":[],"stateMutability":"nonpayable"},{"type":"function","name":"sell","inputs":[{"name":"amount","type":"uint256","internalType":"uint256"}],"outputs":[],"stateMutability":"nonpayable"},{"type":"function","name":"symbol","inputs":[],"outputs":[{"name":"","type":"string","internalType":"string"}],"stateMutability":"view"},{"type":"function","name":"totalSupply","inputs":[],"outputs":[{"name":"","type":"uint256","internalType":"uint256"}],"stateMutability":"view"},{"type":"function","name":"totalTokenSupply","inputs":[],"outputs":[{"name":"","type":"uint256","internalType":"uint256"}],"stateMutability":"view"},{"type":"function","name":"transfer","inputs":[{"name":"to","type":"address","internalType":"address"},{"name":"value","type":"uint256","internalType":"uint256"}],"outputs":[{"name":"","type":"bool","internalType":"bool"}],"stateMutability":"nonpayable"},{"type":"function","name":"transferFrom","inputs":[{"name":"from","type":"address","internalType":"address"},{"name":"to","type":"address","internalType":"address"},{"name":"value","type":"uint256","internalType":"uint256"}],"outputs":[{"name":"","type":"bool","internalType":"bool"}],"stateMutability":"nonpayable"},{"type":"function","name":"transferOwnership","inputs":[{"name":"newOwner","type":"address","internalType":"address"}],"outputs":[],"stateMutability":"nonpayable"},{"type":"function","name":"updateMetadata","inputs":[{"name":"newName","type":"string","internalType":"string"},{"name":"newSymbol","type":"string","internalType":"string"},{"name":"newMetadataURI","type":"string","internalType":"string"}],"outputs":[],"stateMutability":"nonpayable"},{"type":"event","name":"Approval","inputs":[{"name":"owner","type":"address","indexed":true,"internalType":"address"},{"name":"spender","type":"address","indexed":true,"internalType":"address"},{"name":"value","type":"uint256","indexed":false,"internalType":"uint256"}],"anonymous":false},{"type":"event","name":"Buy","inputs":[{"name":"buyer","type":"address","indexed":true,"internalType":"address"},{"name":"amount","type":"uint256","indexed":false,"internalType":"uint256"},{"name":"price","type":"uint256","indexed":false,"internalType":"uint256"}],"anonymous":false},{"type":"event","name":"MetadataUpdated","inputs":[{"name":"newName","type":"string","indexed":false,"internalType":"string"},{"name":"newSymbol","type":"string","indexed":false,"internalType":"string"},{"name":"newMetadataURI","type":"string","indexed":false,"internalType":"string"}],"anonymous":false},{"type":"event","name":"OwnershipTransferred","inputs":[{"name":"previousOwner","type":"address","indexed":true,"internalType":"address"},{"name":"newOwner","type":"address","indexed":true,"internalType":"address"}],"anonymous":false},{"type":"event","name":"Sell","inputs":[{"name":"seller","type":"address","indexed":true,"internalType":"address"},{"name":"amount","type":"uint256","indexed":false,"internalType":"uint256"},{"name":"value","type":"uint256","indexed":false,"internalType":"uint256"}],"anonymous":false},{"type":"event","name":"Transfer","inputs":[{"name":"from","type":"address","indexed":true,"internalType":"address"},{"name":"to","type":"address","indexed":true,"internalType":"address"},{"name":"value","type":"uint256","indexed":false,"internalType":"uint256"}],"anonymous":false},{"type":"error","name":"ERC20InsufficientAllowance","inputs":[{"name":"spender","type":"address","internalType":"address"},{"name":"allowance","type":"uint256","internalType":"uint256"},{"name":"needed","type":"uint256","internalType":"uint256"}]},{"type":"error","name":"ERC20InsufficientBalance","inputs":[{"name":"sender","type":"address","internalType":"address"},{"name":"balance","type":"uint256","internalType":"uint256"},{"name":"needed","type":"uint256","internalType":"uint256"}]},{"type":"error","name":"ERC20InvalidApprover","inputs":[{"name":"approver","type":"address","internalType":"address"}]},{"type":"error","name":"ERC20InvalidReceiver","inputs":[{"name":"receiver","type":"address","internalType":"address"}]},{"type":"error","name":"ERC20InvalidSender","inputs":[{"name":"sender","type":"address","internalType":"address"}]},{"type":"error","name":"ERC20InvalidSpender","inputs":[{"name":"spender","type":"address","internalType":"address"}]},{"type":"error","name":"OwnableInvalidOwner","inputs":[{"name":"owner","type":"address","internalType":"address"}]},{"type":"error","name":"OwnableUnauthorizedAccount","inputs":[{"name":"account","type":"address","internalType":"address"}]}],"bytecode":{"object":"0x608060405234801561001057600080fd5b5060405161151738038061151783398101604081905261002f916101c0565b338383600361003e83826102de565b50600461004b82826102de565b5050506001600160a01b03811661007c57604051631e4fbdf760e01b81526000600482015260240160405180910390fd5b610085816100b5565b50600661009284826102de565b50600761009f83826102de565b5060086100ac82826102de565b5050505061039c565b600580546001600160a01b038381166001600160a01b0319831681179093556040519116919082907f8be0079c531659141344cd1fd0a4f28419497f9722a3daafe3b4186f6b6457e090600090a35050565b634e487b7160e01b600052604160045260246000fd5b600082601f83011261012e57600080fd5b81516001600160401b0381111561014757610147610107565b604051601f8201601f19908116603f011681016001600160401b038111828210171561017557610175610107565b60405281815283820160200185101561018d57600080fd5b60005b828110156101ac57602081860181015183830182015201610190565b506000918101602001919091529392505050565b6000806000606084860312156101d557600080fd5b83516001600160401b038111156101eb57600080fd5b6101f78682870161011d565b602086015190945090506001600160401b0381111561021557600080fd5b6102218682870161011d565b604086015190935090506001600160401b0381111561023f57600080fd5b61024b8682870161011d565b9150509250925092565b600181811c9082168061026957607f821691505b60208210810361028957634e487b7160e01b600052602260045260246000fd5b50919050565b601f8211156102d957806000526020600020601f840160051c810160208510156102b65750805b601f840160051c820191505b818110156102d657600081556001016102c2565b50505b505050565b81516001600160401b038111156102f7576102f7610107565b61030b816103058454610255565b8461028f565b6020601f82116001811461033f57600083156103275750848201515b600019600385901b1c1916600184901b1784556102d6565b600084815260208120601f198516915b8281101561036f578785015182556020948501946001909201910161034f565b508482101561038d5786840151600019600387901b60f8161c191681555b50505050600190811b01905550565b61116c806103ab6000396000f3fe60806040526004361061011f5760003560e01c80638da5cb5b116100a0578063db2a457011610064578063db2a457014610302578063dd62ed3e14610322578063e4849b3214610368578063eb91d37e14610388578063f2fde38b1461039d57600080fd5b80638da5cb5b1461027257806393d5825e1461029a57806395d89b41146102ba578063a9059cbb146102cf578063d96a094a146102ef57600080fd5b80631ca8b6cb116100e75780631ca8b6cb146101d357806323b872dd146101e9578063313ce5671461020957806370a0823114610225578063715018a61461025b57600080fd5b806303ee438c1461012457806306fdde031461014f578063095ea7b31461016457806318160ddd146101945780631b3d36de146101b3575b600080fd5b34801561013057600080fd5b506101396103bd565b6040516101469190610d12565b60405180910390f35b34801561015b57600080fd5b5061013961044b565b34801561017057600080fd5b5061018461017f366004610d41565b6104dd565b6040519015158152602001610146565b3480156101a057600080fd5b506002545b604051908152602001610146565b3480156101bf57600080fd5b506101a56101ce366004610d6b565b6104f7565b3480156101df57600080fd5b506101a560095481565b3480156101f557600080fd5b50610184610204366004610d84565b610561565b34801561021557600080fd5b5060405160128152602001610146565b34801561023157600080fd5b506101a5610240366004610dc1565b6001600160a01b031660009081526020819052604090205490565b34801561026757600080fd5b50610270610585565b005b34801561027e57600080fd5b506005546040516001600160a01b039091168152602001610146565b3480156102a657600080fd5b506101a56102b5366004610d6b565b610599565b3480156102c657600080fd5b506101396105de565b3480156102db57600080fd5b506101846102ea366004610d41565b6105ed565b6102706102fd366004610d6b565b6105fb565b34801561030e57600080fd5b5061027061031d366004610e81565b610714565b34801561032e57600080fd5b506101a561033d366004610f15565b6001600160a01b03918216600090815260016020908152604080832093909416825291909152205490565b34801561037457600080fd5b50610270610383366004610d6b565b610783565b34801561039457600080fd5b506101a561083b565b3480156103a957600080fd5b506102706103b8366004610dc1565b610864565b600880546103ca90610f48565b80601f01602080910402602001604051908101604052809291908181526020018280546103f690610f48565b80156104435780601f1061041857610100808354040283529160200191610443565b820191906000526020600020905b81548152906001019060200180831161042657829003601f168201915b505050505081565b60606006805461045a90610f48565b80601f016020809104026020016040519081016040528092919081815260200182805461048690610f48565b80156104d35780601f106104a8576101008083540402835291602001916104d3565b820191906000526020600020905b8154815290600101906020018083116104b657829003601f168201915b5050505050905090565b6000336104eb8185856108a2565b60019150505b92915050565b60095460009081670de0b6b3a7640000610512856002610f98565b61051c9190610f98565b6105268380610f98565b6105309190610faf565b9050600061053d826108af565b90506000600161054d8584610fc2565b6105579190610fd5565b9695505050505050565b60003361056f858285610906565b61057a85858561097f565b506001949350505050565b61058d6109de565b6105976000610a0b565b565b600954600090816002846105ad8483610f98565b6105b79190610fc2565b6105c2906001610faf565b6105cc9086610f98565b6105d69190610fd5565b949350505050565b60606007805461045a90610f48565b6000336104eb81858561097f565b6000610606826104f7565b9050600081116106535760405162461bcd60e51b8152602060048201526013602482015272105b5bdd5b9d081a5cc81d1bdbc81cdb585b1b606a1b60448201526064015b60405180910390fd5b6000600954826106639190610faf565b90506000670de0b6b3a76400006002846001600954866106839190610faf565b61068d9190610fc2565b6106979190610f98565b6106a19190610fd5565b6106ab9190610fd5565b90506106b73384610a5d565b82600960008282546106c99190610faf565b90915550508381101561070e57336108fc6106e48387610fc2565b6040518115909202916000818181858888f1935050505015801561070c573d6000803e3d6000fd5b505b50505050565b61071c6109de565b6006610728848261103e565b506007610735838261103e565b506008610742828261103e565b507f61b45807b5528344b8b2c26433a3aabead6c9dc6239e146e7ba7c812fded07d0838383604051610776939291906110fd565b60405180910390a1505050565b600081116107c95760405162461bcd60e51b8152602060048201526013602482015272105b5bdd5b9d081a5cc81d1bdbc81cdb585b1b606a1b604482015260640161064a565b60006107d482610599565b90506107e03383610a97565b81600960008282546107f29190610fc2565b909155503390506108fc61080e670de0b6b3a764000084610fd5565b6040518115909202916000818181858888f19350505050158015610836573d6000803e3d6000fd5b505050565b6000670de0b6b3a764000060016009546108559190610faf565b61085f9190610fd5565b905090565b61086c6109de565b6001600160a01b03811661089657604051631e4fbdf760e01b81526000600482015260240161064a565b61089f81610a0b565b50565b6108368383836001610acd565b60008060026108bf846001610faf565b6108c99190610fd5565b9050825b808210156108ff5750806002816108e48187610fd5565b6108ee9190610faf565b6108f89190610fd5565b91506108cd565b9392505050565b6001600160a01b0383811660009081526001602090815260408083209386168352929052205460001981101561070e578181101561097057604051637dc7a0d960e11b81526001600160a01b0384166004820152602481018290526044810183905260640161064a565b61070e84848484036000610acd565b6001600160a01b0383166109a957604051634b637e8f60e11b81526000600482015260240161064a565b6001600160a01b0382166109d35760405163ec442f0560e01b81526000600482015260240161064a565b610836838383610ba2565b6005546001600160a01b031633146105975760405163118cdaa760e01b815233600482015260240161064a565b600580546001600160a01b038381166001600160a01b0319831681179093556040519116919082907f8be0079c531659141344cd1fd0a4f28419497f9722a3daafe3b4186f6b6457e090600090a35050565b6001600160a01b038216610a875760405163ec442f0560e01b81526000600482015260240161064a565b610a9360008383610ba2565b5050565b6001600160a01b038216610ac157604051634b637e8f60e11b81526000600482015260240161064a565b610a9382600083610ba2565b6001600160a01b038416610af75760405163e602df0560e01b81526000600482015260240161064a565b6001600160a01b038316610b2157604051634a1406b160e11b81526000600482015260240161064a565b6001600160a01b038085166000908152600160209081526040808320938716835292905220829055801561070e57826001600160a01b0316846001600160a01b03167f8c5be1e5ebec7d5bd14f71427d1e84f3dd0314c0f7b2291e5b200ac8c7c3b92584604051610b9491815260200190565b60405180910390a350505050565b6001600160a01b038316610bcd578060026000828254610bc29190610faf565b90915550610c3f9050565b6001600160a01b03831660009081526020819052604090205481811015610c205760405163391434e360e21b81526001600160a01b0385166004820152602481018290526044810183905260640161064a565b6001600160a01b03841660009081526020819052604090209082900390555b6001600160a01b038216610c5b57600280548290039055610c7a565b6001600160a01b03821660009081526020819052604090208054820190555b816001600160a01b0316836001600160a01b03167fddf252ad1be2c89b69c2b068fc378daa952ba7f163c4a11628f55a4df523b3ef83604051610cbf91815260200190565b60405180910390a3505050565b6000815180845260005b81811015610cf257602081850181015186830182015201610cd6565b506000602082860101526020601f19601f83011685010191505092915050565b6020815260006108ff6020830184610ccc565b80356001600160a01b0381168114610d3c57600080fd5b919050565b60008060408385031215610d5457600080fd5b610d5d83610d25565b946020939093013593505050565b600060208284031215610d7d57600080fd5b5035919050565b600080600060608486031215610d9957600080fd5b610da284610d25565b9250610db060208501610d25565b929592945050506040919091013590565b600060208284031215610dd357600080fd5b6108ff82610d25565b634e487b7160e01b600052604160045260246000fd5b600082601f830112610e0357600080fd5b813567ffffffffffffffff811115610e1d57610e1d610ddc565b604051601f8201601f19908116603f0116810167ffffffffffffffff81118282101715610e4c57610e4c610ddc565b604052818152838201602001851015610e6457600080fd5b816020850160208301376000918101602001919091529392505050565b600080600060608486031215610e9657600080fd5b833567ffffffffffffffff811115610ead57600080fd5b610eb986828701610df2565b935050602084013567ffffffffffffffff811115610ed657600080fd5b610ee286828701610df2565b925050604084013567ffffffffffffffff811115610eff57600080fd5b610f0b86828701610df2565b9150509250925092565b60008060408385031215610f2857600080fd5b610f3183610d25565b9150610f3f60208401610d25565b90509250929050565b600181811c90821680610f5c57607f821691505b602082108103610f7c57634e487b7160e01b600052602260045260246000fd5b50919050565b634e487b7160e01b600052601160045260246000fd5b80820281158282048414176104f1576104f1610f82565b808201808211156104f1576104f1610f82565b818103818111156104f1576104f1610f82565b600082610ff257634e487b7160e01b600052601260045260246000fd5b500490565b601f82111561083657806000526020600020601f840160051c8101602085101561101e5750805b601f840160051c820191505b8181101561070c576000815560010161102a565b815167ffffffffffffffff81111561105857611058610ddc565b61106c816110668454610f48565b84610ff7565b6020601f8211600181146110a057600083156110885750848201515b600019600385901b1c1916600184901b17845561070c565b600084815260208120601f198516915b828110156110d057878501518255602094850194600190920191016110b0565b50848210156110ee5786840151600019600387901b60f8161c191681555b50505050600190811b01905550565b6060815260006111106060830186610ccc565b82810360208401526111228186610ccc565b905082810360408401526105578185610ccc56fea2646970667358221220203813db6747860097c6aa1959458eb1f27336ffe99e5fa7160077ee2d9ff93864736f6c634300081c0033","linkReferences":{}},"methodIdentifiers":{"allowance(address,address)":"dd62ed3e","approve(address,uint256)":"095ea7b3","balanceOf(address)":"70a08231","buy(uint256)":"d96a094a","calculateToken(uint256)":"1b3d36de","calculateTokenSell(uint256)":"93d5825e","decimals()":"313ce567","getCurrentPrice()":"eb91d37e","metadataURI()":"03ee438c","name()":"06fdde03","owner()":"8da5cb5b","renounceOwnership()":"715018a6","sell(uint256)":"e4849b32","symbol()":"95d89b41","totalSupply()":"18160ddd","totalTokenSupply()":"1ca8b6cb","transfer(address,uint256)":"a9059cbb","transferFrom(address,address,uint256)":"23b872dd","transferOwnership(address)":"f2fde38b","updateMetadata(string,string,string)":"db2a4570"},"id":0}