{"abi":[{"type":"constructor","inputs":[{"name":"name_","type":"string","internalType":"string"},{"name":"symbol_","type":"string","internalType":"string"},{"name":"metadataURI_","type":"string","internalType":"string"},{"name":"initialPrice_","type":"uint256","internalType":"uint256"},{"name":"owner","type":"address","internalType":"address"}],"stateMutability":"nonpayable"},{"type":"receive","stateMutability":"payable"},{"type":"function","name":"allowance","inputs":[{"name":"owner","type":"address","internalType":"address"},{"name":"spender","type":"address","internalType":"address"}],"outputs":[{"name":"","type":"uint256","internalType":"uint256"}],"stateMutability":"view"},{"type":"function","name":"approve","inputs":[{"name":"spender","type":"address","internalType":"address"},{"name":"value","type":"uint256","internalType":"uint256"}],"outputs":[{"name":"","type":"bool","internalType":"bool"}],"stateMutability":"nonpayable"},{"type":"function","name":"balanceOf","inputs":[{"name":"account","type":"address","internalType":"address"}],"outputs":[{"name":"","type":"uint256","internalType":"uint256"}],"stateMutability":"view"},{"type":"function","name":"buy","inputs":[],"outputs":[],"stateMutability":"payable"},{"type":"function","name":"calculateToken","inputs":[{"name":"amount","type":"uint256","internalType":"uint256"}],"outputs":[{"name":"","type":"uint256","internalType":"uint256"}],"stateMutability":"view"},{"type":"function","name":"calculateTokenSell","inputs":[{"name":"amount","type":"uint256","internalType":"uint256"}],"outputs":[{"name":"","type":"uint256","internalType":"uint256"}],"stateMutability":"view"},{"type":"function","name":"decimals","inputs":[],"outputs":[{"name":"","type":"uint8","internalType":"uint8"}],"stateMutability":"pure"},{"type":"function","name":"feePercentage","inputs":[],"outputs":[{"name":"","type":"uint256","internalType":"uint256"}],"stateMutability":"view"},{"type":"function","name":"feeRecipient","inputs":[],"outputs":[{"name":"","type":"address","internalType":"address"}],"stateMutability":"view"},{"type":"function","name":"getContractBalance","inputs":[],"outputs":[{"name":"","type":"uint256","internalType":"uint256"}],"stateMutability":"view"},{"type":"function","name":"getCurrentPrice","inputs":[],"outputs":[{"name":"","type":"uint256","internalType":"uint256"}],"stateMutability":"view"},{"type":"function","name":"getTransactions","inputs":[],"outputs":[{"name":"","type":"bytes32[]","internalType":"bytes32[]"}],"stateMutability":"view"},{"type":"function","name":"logTransaction","inputs":[{"name":"transaction","type":"bytes32","internalType":"bytes32"}],"outputs":[],"stateMutability":"nonpayable"},{"type":"function","name":"metadataURI","inputs":[],"outputs":[{"name":"","type":"string","internalType":"string"}],"stateMutability":"view"},{"type":"function","name":"name","inputs":[],"outputs":[{"name":"","type":"string","internalType":"string"}],"stateMutability":"view"},{"type":"function","name":"owner","inputs":[],"outputs":[{"name":"","type":"address","internalType":"address"}],"stateMutability":"view"},{"type":"function","name":"renounceOwnership","inputs":[],"outputs":[],"stateMutability":"nonpayable"},{"type":"function","name":"sell","inputs":[{"name":"amount","type":"uint256","internalType":"uint256"}],"outputs":[],"stateMutability":"nonpayable"},{"type":"function","name":"setFeeRecipient","inputs":[{"name":"newRecipient","type":"address","internalType":"address"}],"outputs":[],"stateMutability":"nonpayable"},{"type":"function","name":"symbol","inputs":[],"outputs":[{"name":"","type":"string","internalType":"string"}],"stateMutability":"view"},{"type":"function","name":"totalSupply","inputs":[],"outputs":[{"name":"","type":"uint256","internalType":"uint256"}],"stateMutability":"view"},{"type":"function","name":"transactions","inputs":[{"name":"","type":"uint256","internalType":"uint256"}],"outputs":[{"name":"","type":"bytes32","internalType":"bytes32"}],"stateMutability":"view"},{"type":"function","name":"transfer","inputs":[{"name":"to","type":"address","internalType":"address"},{"name":"value","type":"uint256","internalType":"uint256"}],"outputs":[{"name":"","type":"bool","internalType":"bool"}],"stateMutability":"nonpayable"},{"type":"function","name":"transferFrom","inputs":[{"name":"from","type":"address","internalType":"address"},{"name":"to","type":"address","internalType":"address"},{"name":"value","type":"uint256","internalType":"uint256"}],"outputs":[{"name":"","type":"bool","internalType":"bool"}],"stateMutability":"nonpayable"},{"type":"function","name":"transferOwnership","inputs":[{"name":"newOwner","type":"address","internalType":"address"}],"outputs":[],"stateMutability":"nonpayable"},{"type":"function","name":"updateMetadata","inputs":[{"name":"newMetadataURI","type":"string","internalType":"string"}],"outputs":[],"stateMutability":"nonpayable"},{"type":"event","name":"Approval","inputs":[{"name":"owner","type":"address","indexed":true,"internalType":"address"},{"name":"spender","type":"address","indexed":true,"internalType":"address"},{"name":"value","type":"uint256","indexed":false,"internalType":"uint256"}],"anonymous":false},{"type":"event","name":"Buy","inputs":[{"name":"buyer","type":"address","indexed":true,"internalType":"address"},{"name":"amountETH","type":"uint256","indexed":false,"internalType":"uint256"},{"name":"amountToken","type":"uint256","indexed":false,"internalType":"uint256"},{"name":"price","type":"uint256","indexed":false,"internalType":"uint256"}],"anonymous":false},{"type":"event","name":"MetadataUpdated","inputs":[{"name":"newMetadataURI","type":"string","indexed":false,"internalType":"string"}],"anonymous":false},{"type":"event","name":"OwnershipTransferred","inputs":[{"name":"previousOwner","type":"address","indexed":true,"internalType":"address"},{"name":"newOwner","type":"address","indexed":true,"internalType":"address"}],"anonymous":false},{"type":"event","name":"Sell","inputs":[{"name":"seller","type":"address","indexed":true,"internalType":"address"},{"name":"amountETH","type":"uint256","indexed":false,"internalType":"uint256"},{"name":"amoumtToken","type":"uint256","indexed":false,"internalType":"uint256"},{"name":"price","type":"uint256","indexed":false,"internalType":"uint256"}],"anonymous":false},{"type":"event","name":"Transfer","inputs":[{"name":"from","type":"address","indexed":true,"internalType":"address"},{"name":"to","type":"address","indexed":true,"internalType":"address"},{"name":"value","type":"uint256","indexed":false,"internalType":"uint256"}],"anonymous":false},{"type":"error","name":"ERC20InsufficientAllowance","inputs":[{"name":"spender","type":"address","internalType":"address"},{"name":"allowance","type":"uint256","internalType":"uint256"},{"name":"needed","type":"uint256","internalType":"uint256"}]},{"type":"error","name":"ERC20InsufficientBalance","inputs":[{"name":"sender","type":"address","internalType":"address"},{"name":"balance","type":"uint256","internalType":"uint256"},{"name":"needed","type":"uint256","internalType":"uint256"}]},{"type":"error","name":"ERC20InvalidApprover","inputs":[{"name":"approver","type":"address","internalType":"address"}]},{"type":"error","name":"ERC20InvalidReceiver","inputs":[{"name":"receiver","type":"address","internalType":"address"}]},{"type":"error","name":"ERC20InvalidSender","inputs":[{"name":"sender","type":"address","internalType":"address"}]},{"type":"error","name":"ERC20InvalidSpender","inputs":[{"name":"spender","type":"address","internalType":"address"}]},{"type":"error","name":"OwnableInvalidOwner","inputs":[{"name":"owner","type":"address","internalType":"address"}]},{"type":"error","name":"OwnableUnauthorizedAccount","inputs":[{"name":"account","type":"address","internalType":"address"}]}],"bytecode":{"object":"0x608060405260016009556002600a5534801561001a57600080fd5b50604051611b07380380611b07833981016040819052610039916101d7565b80858560036100488382610322565b5060046100558282610322565b5050506001600160a01b03811661008657604051631e4fbdf760e01b81526000600482015260240160405180910390fd5b61008f816100cc565b50600982905560086100a18482610322565b50600b80546001600160a01b0319166001600160a01b0392909216919091179055506103e092505050565b600580546001600160a01b038381166001600160a01b0319831681179093556040519116919082907f8be0079c531659141344cd1fd0a4f28419497f9722a3daafe3b4186f6b6457e090600090a35050565b634e487b7160e01b600052604160045260246000fd5b600082601f83011261014557600080fd5b81516001600160401b0381111561015e5761015e61011e565b604051601f8201601f19908116603f011681016001600160401b038111828210171561018c5761018c61011e565b6040528181528382016020018510156101a457600080fd5b60005b828110156101c3576020818601810151838301820152016101a7565b506000918101602001919091529392505050565b600080600080600060a086880312156101ef57600080fd5b85516001600160401b0381111561020557600080fd5b61021188828901610134565b602088015190965090506001600160401b0381111561022f57600080fd5b61023b88828901610134565b604088015190955090506001600160401b0381111561025957600080fd5b61026588828901610134565b60608801516080890151919550935090506001600160a01b038116811461028b57600080fd5b809150509295509295909350565b600181811c908216806102ad57607f821691505b6020821081036102cd57634e487b7160e01b600052602260045260246000fd5b50919050565b601f82111561031d57806000526020600020601f840160051c810160208510156102fa5750805b601f840160051c820191505b8181101561031a5760008155600101610306565b50505b505050565b81516001600160401b0381111561033b5761033b61011e565b61034f816103498454610299565b846102d3565b6020601f821160018114610383576000831561036b5750848201515b600019600385901b1c1916600184901b17845561031a565b600084815260208120601f198516915b828110156103b35787850151825560209485019460019092019101610393565b50848210156103d15786840151600019600387901b60f8161c191681555b50505050600190811b01905550565b611718806103ef6000396000f3fe6080604052600436106101855760003560e01c80638da5cb5b116100d1578063a6f2ae3a1161008a578063e4849b3211610064578063e4849b321461049d578063e74b981b146104bd578063eb91d37e146104dd578063f2fde38b146104f257600080fd5b8063a6f2ae3a1461042f578063a9059cbb14610437578063dd62ed3e1461045757600080fd5b80638da5cb5b14610386578063918b5be1146103a457806393d5825e146103c457806395d89b41146103e45780639ace38c2146103f9578063a001ecdd1461041957600080fd5b8063256408501161013e5780636f9fb98a116101185780636f9fb98a1461030657806370a0823114610319578063715018a61461034f57806383920e901461036457600080fd5b80632564085014610260578063313ce567146102b257806346904840146102ce57600080fd5b806303ee438c1461019157806306fdde03146101bc578063095ea7b3146101d157806318160ddd146102015780631b3d36de1461022057806323b872dd1461024057600080fd5b3661018c57005b600080fd5b34801561019d57600080fd5b506101a6610512565b6040516101b391906112f5565b60405180910390f35b3480156101c857600080fd5b506101a66105a0565b3480156101dd57600080fd5b506101f16101ec366004611324565b610632565b60405190151581526020016101b3565b34801561020d57600080fd5b506002545b6040519081526020016101b3565b34801561022c57600080fd5b5061021261023b36600461134e565b61064c565b34801561024c57600080fd5b506101f161025b366004611367565b6107a9565b34801561026c57600080fd5b506102b061027b36600461134e565b600c80546001810182556000919091527fdf6966c971051c3d54ec59162606531493a51404a002842f56009d7e5cf4a8c70155565b005b3480156102be57600080fd5b50604051600581526020016101b3565b3480156102da57600080fd5b50600b546102ee906001600160a01b031681565b6040516001600160a01b0390911681526020016101b3565b34801561031257600080fd5b5047610212565b34801561032557600080fd5b506102126103343660046113a4565b6001600160a01b031660009081526020819052604090205490565b34801561035b57600080fd5b506102b06107cd565b34801561037057600080fd5b506103796107e1565b6040516101b391906113bf565b34801561039257600080fd5b506005546001600160a01b03166102ee565b3480156103b057600080fd5b506102b06103bf366004611418565b610838565b3480156103d057600080fd5b506102126103df36600461134e565b610887565b3480156103f057600080fd5b506101a66108d5565b34801561040557600080fd5b5061021261041436600461134e565b6108e4565b34801561042557600080fd5b50610212600a5481565b6102b0610905565b34801561044357600080fd5b506101f1610452366004611324565b610aeb565b34801561046357600080fd5b506102126104723660046114d1565b6001600160a01b03918216600090815260016020908152604080832093909416825291909152205490565b3480156104a957600080fd5b506102b06104b836600461134e565b610af9565b3480156104c957600080fd5b506102b06104d83660046113a4565b610d41565b3480156104e957600080fd5b50610212610db5565b3480156104fe57600080fd5b506102b061050d3660046113a4565b610dd2565b6008805461051f90611504565b80601f016020809104026020016040519081016040528092919081815260200182805461054b90611504565b80156105985780601f1061056d57610100808354040283529160200191610598565b820191906000526020600020905b81548152906001019060200180831161057b57829003601f168201915b505050505081565b6060600380546105af90611504565b80601f01602080910402602001604051908101604052809291908181526020018280546105db90611504565b80156106285780601f106105fd57610100808354040283529160200191610628565b820191906000526020600020905b81548152906001019060200180831161060b57829003601f168201915b5050505050905090565b600033610640818585610e10565b60019150505b92915050565b60008082116106a25760405162461bcd60e51b815260206004820152601d60248201527f416d6f756e74206d7573742062652067726561746572207468616e203000000060448201526064015b60405180910390fd5b60006106ac610db5565b905060006106bb846002611554565b6106c58380611554565b6106cf919061156b565b90506106db8280611554565b81101561071b5760405162461bcd60e51b815260206004820152600e60248201526d125b9d985b1a5908185b5bdd5b9d60921b6044820152606401610699565b600061072682610e22565b905060006001610736858461157e565b6107409190611591565b9050600081116107a05760405162461bcd60e51b815260206004820152602560248201527f416d6f756e7420697320746f6f20736d616c6c20746f206d696e7420616e79206044820152643a37b5b2b760d91b6064820152608401610699565b95945050505050565b6000336107b7858285610e79565b6107c2858585610ef8565b506001949350505050565b6107d5610f57565b6107df6000610f84565b565b6060600c80548060200260200160405190810160405280929190818152602001828054801561062857602002820191906000526020600020905b81548152602001906001019080831161081b575050505050905090565b610840610f57565b600861084c8282611601565b507f1c306e70c05992619e2128ad1ef88df75f36c9476282e59f51401b2abaa42e4e8160405161087c91906112f5565b60405180910390a150565b600080610892610db5565b9050600060026001856108a58584611554565b6108af919061157e565b6108b9919061157e565b6108c39086611554565b6108cd9190611591565b949350505050565b6060600480546105af90611504565b600c81815481106108f457600080fd5b600091825260209091200154905081565b60006109103461064c565b9050600081116109585760405162461bcd60e51b8152602060048201526013602482015272105b5bdd5b9d081a5cc81d1bdbc81cdb585b1b606a1b6044820152606401610699565b6000610962610db5565b90506000610970828461156b565b905060006002846001610983868661156b565b61098d919061157e565b6109979190611554565b6109a19190611591565b90506109cb60405180604001604052806006815260200165283934b1b29d60d11b81525082610fd6565b6109f86040518060400160405280600b81526020016a03a37b5b2b710313abc9d160ad1b81525085610fd6565b610a02338561101f565b80341115610a9b57600033610a17833461157e565b604051600081818185875af1925050503d8060008114610a53576040519150601f19603f3d011682016040523d82523d6000602084013e610a58565b606091505b5050905080610a995760405162461bcd60e51b815260206004820152600d60248201526c1499599d5b990819985a5b1959609a1b6044820152606401610699565b505b337fbeae048c6d270d9469f86cf6e8fedda3c60ad770f16c24c9fc131c8e9a09101d3486610ac7610db5565b6040805193845260208401929092529082015260600160405180910390a250505050565b600033610640818585610ef8565b60008111610b3c5760405162461bcd60e51b815260206004820152601060248201526f105b5bdd5b9d081d1bdbc81cdb585b1b60821b6044820152606401610699565b600254811115610b825760405162461bcd60e51b8152602060048201526011602482015270416d6f756e7420697320746f6f2062696760781b6044820152606401610699565b6000610b8d82610887565b905060006064600a5483610ba19190611554565b610bab9190611591565b90506000610bb9828461157e565b9050610be3604051806040016040528060068152602001652b30b63ab29d60d11b81525084610fd6565b610c0c60405180604001604052806007815260200166213630b731b29d60c91b81525047610fd6565b80471015610c5c5760405162461bcd60e51b815260206004820152601e60248201527f4e6f7420656e6f7567682062616c616e636520696e20636f6e747261637400006044820152606401610699565b610c663385611055565b604051600090339083908381818185875af1925050503d8060008114610ca8576040519150601f19603f3d011682016040523d82523d6000602084013e610cad565b606091505b5050905080610cf05760405162461bcd60e51b815260206004820152600f60248201526e151c985b9cd9995c8819985a5b1959608a1b6044820152606401610699565b337f846c37eef631e0943682d87352ec117c20008eb7f425c9b85ac011a6d4774cc08387610d1c610db5565b6040805193845260208401929092529082015260600160405180910390a25050505050565b610d49610f57565b6001600160a01b038116610d935760405162461bcd60e51b8152602060048201526011602482015270125b9d985b1a59081c9958da5c1a595b9d607a1b6044820152606401610699565b600b80546001600160a01b0319166001600160a01b0392909216919091179055565b6000600954610dc360025490565b610dcd919061156b565b905090565b610dda610f57565b6001600160a01b038116610e0457604051631e4fbdf760e01b815260006004820152602401610699565b610e0d81610f84565b50565b610e1d838383600161108b565b505050565b6000806002610e3284600161156b565b610e3c9190611591565b9050825b80821015610e72575080600281610e578187611591565b610e61919061156b565b610e6b9190611591565b9150610e40565b9392505050565b6001600160a01b03838116600090815260016020908152604080832093861683529290522054600019811015610ef25781811015610ee357604051637dc7a0d960e11b81526001600160a01b03841660048201526024810182905260448101839052606401610699565b610ef28484848403600061108b565b50505050565b6001600160a01b038316610f2257604051634b637e8f60e11b815260006004820152602401610699565b6001600160a01b038216610f4c5760405163ec442f0560e01b815260006004820152602401610699565b610e1d838383611160565b6005546001600160a01b031633146107df5760405163118cdaa760e01b8152336004820152602401610699565b600580546001600160a01b038381166001600160a01b0319831681179093556040519116919082907f8be0079c531659141344cd1fd0a4f28419497f9722a3daafe3b4186f6b6457e090600090a35050565b61101b8282604051602401610fec9291906116c0565b60408051601f198184030181529190526020810180516001600160e01b0316632d839cb360e21b17905261128a565b5050565b6001600160a01b0382166110495760405163ec442f0560e01b815260006004820152602401610699565b61101b60008383611160565b6001600160a01b03821661107f57604051634b637e8f60e11b815260006004820152602401610699565b61101b82600083611160565b6001600160a01b0384166110b55760405163e602df0560e01b815260006004820152602401610699565b6001600160a01b0383166110df57604051634a1406b160e11b815260006004820152602401610699565b6001600160a01b0380851660009081526001602090815260408083209387168352929052208290558015610ef257826001600160a01b0316846001600160a01b03167f8c5be1e5ebec7d5bd14f71427d1e84f3dd0314c0f7b2291e5b200ac8c7c3b9258460405161115291815260200190565b60405180910390a350505050565b6001600160a01b03831661118b578060026000828254611180919061156b565b909155506111fd9050565b6001600160a01b038316600090815260208190526040902054818110156111de5760405163391434e360e21b81526001600160a01b03851660048201526024810182905260448101839052606401610699565b6001600160a01b03841660009081526020819052604090209082900390555b6001600160a01b03821661121957600280548290039055611238565b6001600160a01b03821660009081526020819052604090208054820190555b816001600160a01b0316836001600160a01b03167fddf252ad1be2c89b69c2b068fc378daa952ba7f163c4a11628f55a4df523b3ef8360405161127d91815260200190565b60405180910390a3505050565b610e0d8160006a636f6e736f6c652e6c6f679050600080835160208501845afa505050565b6000815180845260005b818110156112d5576020818501810151868301820152016112b9565b506000602082860101526020601f19601f83011685010191505092915050565b602081526000610e7260208301846112af565b80356001600160a01b038116811461131f57600080fd5b919050565b6000806040838503121561133757600080fd5b61134083611308565b946020939093013593505050565b60006020828403121561136057600080fd5b5035919050565b60008060006060848603121561137c57600080fd5b61138584611308565b925061139360208501611308565b929592945050506040919091013590565b6000602082840312156113b657600080fd5b610e7282611308565b602080825282518282018190526000918401906040840190835b818110156113f75783518352602093840193909201916001016113d9565b509095945050505050565b634e487b7160e01b600052604160045260246000fd5b60006020828403121561142a57600080fd5b813567ffffffffffffffff81111561144157600080fd5b8201601f8101841361145257600080fd5b803567ffffffffffffffff81111561146c5761146c611402565b604051601f8201601f19908116603f0116810167ffffffffffffffff8111828210171561149b5761149b611402565b6040528181528282016020018610156114b357600080fd5b81602084016020830137600091810160200191909152949350505050565b600080604083850312156114e457600080fd5b6114ed83611308565b91506114fb60208401611308565b90509250929050565b600181811c9082168061151857607f821691505b60208210810361153857634e487b7160e01b600052602260045260246000fd5b50919050565b634e487b7160e01b600052601160045260246000fd5b80820281158282048414176106465761064661153e565b808201808211156106465761064661153e565b818103818111156106465761064661153e565b6000826115ae57634e487b7160e01b600052601260045260246000fd5b500490565b601f821115610e1d57806000526020600020601f840160051c810160208510156115da5750805b601f840160051c820191505b818110156115fa57600081556001016115e6565b5050505050565b815167ffffffffffffffff81111561161b5761161b611402565b61162f816116298454611504565b846115b3565b6020601f821160018114611663576000831561164b5750848201515b600019600385901b1c1916600184901b1784556115fa565b600084815260208120601f198516915b828110156116935787850151825560209485019460019092019101611673565b50848210156116b15786840151600019600387901b60f8161c191681555b50505050600190811b01905550565b6040815260006116d360408301856112af565b9050826020830152939250505056fea2646970667358221220e8a97ba5955331be781853d2a56db93cb680b1343a72e45f51b369d81b6c5f3764736f6c634300081c0033","linkReferences":{}},"methodIdentifiers":{"allowance(address,address)":"dd62ed3e","approve(address,uint256)":"095ea7b3","balanceOf(address)":"70a08231","buy()":"a6f2ae3a","calculateToken(uint256)":"1b3d36de","calculateTokenSell(uint256)":"93d5825e","decimals()":"313ce567","feePercentage()":"a001ecdd","feeRecipient()":"46904840","getContractBalance()":"6f9fb98a","getCurrentPrice()":"eb91d37e","getTransactions()":"83920e90","logTransaction(bytes32)":"25640850","metadataURI()":"03ee438c","name()":"06fdde03","owner()":"8da5cb5b","renounceOwnership()":"715018a6","sell(uint256)":"e4849b32","setFeeRecipient(address)":"e74b981b","symbol()":"95d89b41","totalSupply()":"18160ddd","transactions(uint256)":"9ace38c2","transfer(address,uint256)":"a9059cbb","transferFrom(address,address,uint256)":"23b872dd","transferOwnership(address)":"f2fde38b","updateMetadata(string)":"918b5be1"},"id":1}