{"abi":[{"type":"constructor","inputs":[{"name":"name_","type":"string","internalType":"string"},{"name":"symbol_","type":"string","internalType":"string"},{"name":"metadataURI_","type":"string","internalType":"string"},{"name":"initialPrice_","type":"uint256","internalType":"uint256"}],"stateMutability":"nonpayable"},{"type":"receive","stateMutability":"payable"},{"type":"function","name":"allowance","inputs":[{"name":"owner","type":"address","internalType":"address"},{"name":"spender","type":"address","internalType":"address"}],"outputs":[{"name":"","type":"uint256","internalType":"uint256"}],"stateMutability":"view"},{"type":"function","name":"approve","inputs":[{"name":"spender","type":"address","internalType":"address"},{"name":"value","type":"uint256","internalType":"uint256"}],"outputs":[{"name":"","type":"bool","internalType":"bool"}],"stateMutability":"nonpayable"},{"type":"function","name":"balanceOf","inputs":[{"name":"account","type":"address","internalType":"address"}],"outputs":[{"name":"","type":"uint256","internalType":"uint256"}],"stateMutability":"view"},{"type":"function","name":"buy","inputs":[],"outputs":[],"stateMutability":"payable"},{"type":"function","name":"calculateToken","inputs":[{"name":"amount","type":"uint256","internalType":"uint256"}],"outputs":[{"name":"","type":"uint256","internalType":"uint256"}],"stateMutability":"view"},{"type":"function","name":"calculateTokenSell","inputs":[{"name":"amount","type":"uint256","internalType":"uint256"}],"outputs":[{"name":"","type":"uint256","internalType":"uint256"}],"stateMutability":"view"},{"type":"function","name":"decimals","inputs":[],"outputs":[{"name":"","type":"uint8","internalType":"uint8"}],"stateMutability":"pure"},{"type":"function","name":"feePercentage","inputs":[],"outputs":[{"name":"","type":"uint256","internalType":"uint256"}],"stateMutability":"view"},{"type":"function","name":"feeRecipient","inputs":[],"outputs":[{"name":"","type":"address","internalType":"address"}],"stateMutability":"view"},{"type":"function","name":"getContractBalance","inputs":[],"outputs":[{"name":"","type":"uint256","internalType":"uint256"}],"stateMutability":"view"},{"type":"function","name":"getCurrentPrice","inputs":[],"outputs":[{"name":"","type":"uint256","internalType":"uint256"}],"stateMutability":"view"},{"type":"function","name":"metadataURI","inputs":[],"outputs":[{"name":"","type":"string","internalType":"string"}],"stateMutability":"view"},{"type":"function","name":"name","inputs":[],"outputs":[{"name":"","type":"string","internalType":"string"}],"stateMutability":"view"},{"type":"function","name":"owner","inputs":[],"outputs":[{"name":"","type":"address","internalType":"address"}],"stateMutability":"view"},{"type":"function","name":"renounceOwnership","inputs":[],"outputs":[],"stateMutability":"nonpayable"},{"type":"function","name":"sell","inputs":[{"name":"amount","type":"uint256","internalType":"uint256"}],"outputs":[],"stateMutability":"nonpayable"},{"type":"function","name":"setFeeRecipient","inputs":[{"name":"newRecipient","type":"address","internalType":"address"}],"outputs":[],"stateMutability":"nonpayable"},{"type":"function","name":"symbol","inputs":[],"outputs":[{"name":"","type":"string","internalType":"string"}],"stateMutability":"view"},{"type":"function","name":"totalSupply","inputs":[],"outputs":[{"name":"","type":"uint256","internalType":"uint256"}],"stateMutability":"view"},{"type":"function","name":"transfer","inputs":[{"name":"to","type":"address","internalType":"address"},{"name":"value","type":"uint256","internalType":"uint256"}],"outputs":[{"name":"","type":"bool","internalType":"bool"}],"stateMutability":"nonpayable"},{"type":"function","name":"transferFrom","inputs":[{"name":"from","type":"address","internalType":"address"},{"name":"to","type":"address","internalType":"address"},{"name":"value","type":"uint256","internalType":"uint256"}],"outputs":[{"name":"","type":"bool","internalType":"bool"}],"stateMutability":"nonpayable"},{"type":"function","name":"transferOwnership","inputs":[{"name":"newOwner","type":"address","internalType":"address"}],"outputs":[],"stateMutability":"nonpayable"},{"type":"function","name":"updateMetadata","inputs":[{"name":"newMetadataURI","type":"string","internalType":"string"}],"outputs":[],"stateMutability":"nonpayable"},{"type":"event","name":"Approval","inputs":[{"name":"owner","type":"address","indexed":true,"internalType":"address"},{"name":"spender","type":"address","indexed":true,"internalType":"address"},{"name":"value","type":"uint256","indexed":false,"internalType":"uint256"}],"anonymous":false},{"type":"event","name":"Buy","inputs":[{"name":"buyer","type":"address","indexed":true,"internalType":"address"},{"name":"amountETH","type":"uint256","indexed":false,"internalType":"uint256"},{"name":"amountToken","type":"uint256","indexed":false,"internalType":"uint256"}],"anonymous":false},{"type":"event","name":"MetadataUpdated","inputs":[{"name":"newMetadataURI","type":"string","indexed":false,"internalType":"string"}],"anonymous":false},{"type":"event","name":"OwnershipTransferred","inputs":[{"name":"previousOwner","type":"address","indexed":true,"internalType":"address"},{"name":"newOwner","type":"address","indexed":true,"internalType":"address"}],"anonymous":false},{"type":"event","name":"Sell","inputs":[{"name":"seller","type":"address","indexed":true,"internalType":"address"},{"name":"amountETH","type":"uint256","indexed":false,"internalType":"uint256"},{"name":"amoumtToken","type":"uint256","indexed":false,"internalType":"uint256"}],"anonymous":false},{"type":"event","name":"Transfer","inputs":[{"name":"from","type":"address","indexed":true,"internalType":"address"},{"name":"to","type":"address","indexed":true,"internalType":"address"},{"name":"value","type":"uint256","indexed":false,"internalType":"uint256"}],"anonymous":false},{"type":"error","name":"ERC20InsufficientAllowance","inputs":[{"name":"spender","type":"address","internalType":"address"},{"name":"allowance","type":"uint256","internalType":"uint256"},{"name":"needed","type":"uint256","internalType":"uint256"}]},{"type":"error","name":"ERC20InsufficientBalance","inputs":[{"name":"sender","type":"address","internalType":"address"},{"name":"balance","type":"uint256","internalType":"uint256"},{"name":"needed","type":"uint256","internalType":"uint256"}]},{"type":"error","name":"ERC20InvalidApprover","inputs":[{"name":"approver","type":"address","internalType":"address"}]},{"type":"error","name":"ERC20InvalidReceiver","inputs":[{"name":"receiver","type":"address","internalType":"address"}]},{"type":"error","name":"ERC20InvalidSender","inputs":[{"name":"sender","type":"address","internalType":"address"}]},{"type":"error","name":"ERC20InvalidSpender","inputs":[{"name":"spender","type":"address","internalType":"address"}]},{"type":"error","name":"OwnableInvalidOwner","inputs":[{"name":"owner","type":"address","internalType":"address"}]},{"type":"error","name":"OwnableUnauthorizedAccount","inputs":[{"name":"account","type":"address","internalType":"address"}]}],"bytecode":{"object":"0x60806040526002600a55348015610014575f5ffd5b50604051611769380380611769833981016040819052610033916101a5565b338484600361004283826102c0565b50600461004f82826102c0565b5050506001600160a01b03811661007f57604051631e4fbdf760e01b81525f600482015260240160405180910390fd5b610088816100b7565b506009819055600861009a83826102c0565b5050600b80546001600160a01b031916331790555061037a915050565b600580546001600160a01b038381166001600160a01b0319831681179093556040519116919082907f8be0079c531659141344cd1fd0a4f28419497f9722a3daafe3b4186f6b6457e0905f90a35050565b634e487b7160e01b5f52604160045260245ffd5b5f82601f83011261012b575f5ffd5b81516001600160401b0381111561014457610144610108565b604051601f8201601f19908116603f011681016001600160401b038111828210171561017257610172610108565b604052818152838201602001851015610189575f5ffd5b8160208501602083015e5f918101602001919091529392505050565b5f5f5f5f608085870312156101b8575f5ffd5b84516001600160401b038111156101cd575f5ffd5b6101d98782880161011c565b602087015190955090506001600160401b038111156101f6575f5ffd5b6102028782880161011c565b604087015190945090506001600160401b0381111561021f575f5ffd5b61022b8782880161011c565b606096909601519497939650505050565b600181811c9082168061025057607f821691505b60208210810361026e57634e487b7160e01b5f52602260045260245ffd5b50919050565b601f8211156102bb57805f5260205f20601f840160051c810160208510156102995750805b601f840160051c820191505b818110156102b8575f81556001016102a5565b50505b505050565b81516001600160401b038111156102d9576102d9610108565b6102ed816102e7845461023c565b84610274565b6020601f82116001811461031f575f83156103085750848201515b5f19600385901b1c1916600184901b1784556102b8565b5f84815260208120601f198516915b8281101561034e578785015182556020948501946001909201910161032e565b508482101561036b57868401515f19600387901b60f8161c191681555b50505050600190811b01905550565b6113e2806103875f395ff3fe60806040526004361061013f575f3560e01c80638da5cb5b116100b3578063a9059cbb1161006d578063a9059cbb1461034d578063dd62ed3e1461036c578063e4849b32146103b0578063e74b981b146103cf578063eb91d37e146103ee578063f2fde38b14610402575f5ffd5b80638da5cb5b146102c1578063918b5be1146102de57806393d5825e146102fd57806395d89b411461031c578063a001ecdd14610330578063a6f2ae3a14610345575f5ffd5b806323b872dd1161010457806323b872dd146101f4578063313ce56714610213578063469048401461022e5780636f9fb98a1461026557806370a0823114610277578063715018a6146102ab575f5ffd5b806303ee438c1461014a57806306fdde0314610174578063095ea7b31461018857806318160ddd146101b75780631b3d36de146101d5575f5ffd5b3661014657005b5f5ffd5b348015610155575f5ffd5b5061015e610421565b60405161016b9190611026565b60405180910390f35b34801561017f575f5ffd5b5061015e6104ad565b348015610193575f5ffd5b506101a76101a2366004611053565b61053d565b604051901515815260200161016b565b3480156101c2575f5ffd5b506002545b60405190815260200161016b565b3480156101e0575f5ffd5b506101c76101ef36600461107b565b610556565b3480156101ff575f5ffd5b506101a761020e366004611092565b6105b1565b34801561021e575f5ffd5b506040516005815260200161016b565b348015610239575f5ffd5b50600b5461024d906001600160a01b031681565b6040516001600160a01b03909116815260200161016b565b348015610270575f5ffd5b50476101c7565b348015610282575f5ffd5b506101c76102913660046110cc565b6001600160a01b03165f9081526020819052604090205490565b3480156102b6575f5ffd5b506102bf6105d4565b005b3480156102cc575f5ffd5b506005546001600160a01b031661024d565b3480156102e9575f5ffd5b506102bf6102f83660046110f9565b6105e7565b348015610308575f5ffd5b506101c761031736600461107b565b610636565b348015610327575f5ffd5b5061015e610681565b34801561033b575f5ffd5b506101c7600a5481565b6102bf610690565b348015610358575f5ffd5b506101a7610367366004611053565b610862565b348015610377575f5ffd5b506101c76103863660046111ac565b6001600160a01b039182165f90815260016020908152604080832093909416825291909152205490565b3480156103bb575f5ffd5b506102bf6103ca36600461107b565b61086f565b3480156103da575f5ffd5b506102bf6103e93660046110cc565b610aa0565b3480156103f9575f5ffd5b506101c7610b14565b34801561040d575f5ffd5b506102bf61041c3660046110cc565b610b30565b6008805461042e906111dd565b80601f016020809104026020016040519081016040528092919081815260200182805461045a906111dd565b80156104a55780601f1061047c576101008083540402835291602001916104a5565b820191905f5260205f20905b81548152906001019060200180831161048857829003601f168201915b505050505081565b6060600380546104bc906111dd565b80601f01602080910402602001604051908101604052809291908181526020018280546104e8906111dd565b80156105335780601f1061050a57610100808354040283529160200191610533565b820191905f5260205f20905b81548152906001019060200180831161051657829003601f168201915b5050505050905090565b5f3361054a818585610b6d565b60019150505b92915050565b5f5f610560610b14565b90505f61056e846002611229565b6105788380611229565b6105829190611240565b90505f61058e82610b7f565b90505f600161059d8584611253565b6105a79190611266565b9695505050505050565b5f336105be858285610bd5565b6105c9858585610c51565b506001949350505050565b6105dc610cae565b6105e55f610cdb565b565b6105ef610cae565b60086105fb82826112d0565b507f1c306e70c05992619e2128ad1ef88df75f36c9476282e59f51401b2abaa42e4e8160405161062b9190611026565b60405180910390a150565b5f5f610640610b14565b90505f6002846106508483611229565b61065a9190611253565b610665906001611240565b61066f9086611229565b6106799190611266565b949350505050565b6060600480546104bc906111dd565b5f61069a34610556565b90505f81116106e65760405162461bcd60e51b8152602060048201526013602482015272105b5bdd5b9d081a5cc81d1bdbc81cdb585b1b606a1b60448201526064015b60405180910390fd5b5f6106ef610b14565b90505f6106fc8284611240565b90505f60028461070c8585611240565b610717906001611240565b6107219190611229565b61072b9190611266565b905061075560405180604001604052806006815260200165283934b1b29d60d11b81525082610d2c565b6107826040518060400160405280600b81526020016a03a37b5b2b710313abc9d160ad1b81525085610d2c565b61078c3385610d75565b80341115610821575f336107a08334611253565b6040515f81818185875af1925050503d805f81146107d9576040519150601f19603f3d011682016040523d82523d5f602084013e6107de565b606091505b505090508061081f5760405162461bcd60e51b815260206004820152600d60248201526c1499599d5b990819985a5b1959609a1b60448201526064016106dd565b505b604080513481526020810186905233917f1cbc5ab135991bd2b6a4b034a04aa2aa086dac1371cb9b16b8b5e2ed6b036bed910160405180910390a250505050565b5f3361054a818585610c51565b5f81116108b15760405162461bcd60e51b815260206004820152601060248201526f105b5bdd5b9d081d1bdbc81cdb585b1b60821b60448201526064016106dd565b60025481106108f65760405162461bcd60e51b8152602060048201526011602482015270416d6f756e7420697320746f6f2062696760781b60448201526064016106dd565b5f61090082610636565b90505f6064600a54836109139190611229565b61091d9190611266565b90505f61092a8284611253565b9050610954604051806040016040528060068152602001652b30b63ab29d60d11b81525084610d2c565b61097d60405180604001604052806007815260200166213630b731b29d60c91b81525047610d2c565b804710156109cd5760405162461bcd60e51b815260206004820152601e60248201527f4e6f7420656e6f7567682062616c616e636520696e20636f6e7472616374000060448201526064016106dd565b6109d73385610da9565b6040515f90339083908381818185875af1925050503d805f8114610a16576040519150601f19603f3d011682016040523d82523d5f602084013e610a1b565b606091505b5050905080610a5e5760405162461bcd60e51b815260206004820152600f60248201526e151c985b9cd9995c8819985a5b1959608a1b60448201526064016106dd565b604080518681526020810184905233917fed7a144fad14804d5c249145e3e0e2b63a9eb455b76aee5bc92d711e9bba3e4a910160405180910390a25050505050565b610aa8610cae565b6001600160a01b038116610af25760405162461bcd60e51b8152602060048201526011602482015270125b9d985b1a59081c9958da5c1a595b9d607a1b60448201526064016106dd565b600b80546001600160a01b0319166001600160a01b0392909216919091179055565b5f600954610b2160025490565b610b2b9190611240565b905090565b610b38610cae565b6001600160a01b038116610b6157604051631e4fbdf760e01b81525f60048201526024016106dd565b610b6a81610cdb565b50565b610b7a8383836001610ddd565b505050565b5f806002610b8e846001611240565b610b989190611266565b9050825b80821015610bce575080600281610bb38187611266565b610bbd9190611240565b610bc79190611266565b9150610b9c565b9392505050565b6001600160a01b038381165f908152600160209081526040808320938616835292905220545f19811015610c4b5781811015610c3d57604051637dc7a0d960e11b81526001600160a01b038416600482015260248101829052604481018390526064016106dd565b610c4b84848484035f610ddd565b50505050565b6001600160a01b038316610c7a57604051634b637e8f60e11b81525f60048201526024016106dd565b6001600160a01b038216610ca35760405163ec442f0560e01b81525f60048201526024016106dd565b610b7a838383610eaf565b6005546001600160a01b031633146105e55760405163118cdaa760e01b81523360048201526024016106dd565b600580546001600160a01b038381166001600160a01b0319831681179093556040519116919082907f8be0079c531659141344cd1fd0a4f28419497f9722a3daafe3b4186f6b6457e0905f90a35050565b610d718282604051602401610d4292919061138b565b60408051601f198184030181529190526020810180516001600160e01b0316632d839cb360e21b179052610fd5565b5050565b6001600160a01b038216610d9e5760405163ec442f0560e01b81525f60048201526024016106dd565b610d715f8383610eaf565b6001600160a01b038216610dd257604051634b637e8f60e11b81525f60048201526024016106dd565b610d71825f83610eaf565b6001600160a01b038416610e065760405163e602df0560e01b81525f60048201526024016106dd565b6001600160a01b038316610e2f57604051634a1406b160e11b81525f60048201526024016106dd565b6001600160a01b038085165f9081526001602090815260408083209387168352929052208290558015610c4b57826001600160a01b0316846001600160a01b03167f8c5be1e5ebec7d5bd14f71427d1e84f3dd0314c0f7b2291e5b200ac8c7c3b92584604051610ea191815260200190565b60405180910390a350505050565b6001600160a01b038316610ed9578060025f828254610ece9190611240565b90915550610f499050565b6001600160a01b0383165f9081526020819052604090205481811015610f2b5760405163391434e360e21b81526001600160a01b038516600482015260248101829052604481018390526064016106dd565b6001600160a01b0384165f9081526020819052604090209082900390555b6001600160a01b038216610f6557600280548290039055610f83565b6001600160a01b0382165f9081526020819052604090208054820190555b816001600160a01b0316836001600160a01b03167fddf252ad1be2c89b69c2b068fc378daa952ba7f163c4a11628f55a4df523b3ef83604051610fc891815260200190565b60405180910390a3505050565b610b6a815f6a636f6e736f6c652e6c6f6790505f5f835160208501845afa505050565b5f81518084528060208401602086015e5f602082860101526020601f19601f83011685010191505092915050565b602081525f610bce6020830184610ff8565b80356001600160a01b038116811461104e575f5ffd5b919050565b5f5f60408385031215611064575f5ffd5b61106d83611038565b946020939093013593505050565b5f6020828403121561108b575f5ffd5b5035919050565b5f5f5f606084860312156110a4575f5ffd5b6110ad84611038565b92506110bb60208501611038565b929592945050506040919091013590565b5f602082840312156110dc575f5ffd5b610bce82611038565b634e487b7160e01b5f52604160045260245ffd5b5f60208284031215611109575f5ffd5b813567ffffffffffffffff81111561111f575f5ffd5b8201601f8101841361112f575f5ffd5b803567ffffffffffffffff811115611149576111496110e5565b604051601f8201601f19908116603f0116810167ffffffffffffffff81118282101715611178576111786110e5565b60405281815282820160200186101561118f575f5ffd5b816020840160208301375f91810160200191909152949350505050565b5f5f604083850312156111bd575f5ffd5b6111c683611038565b91506111d460208401611038565b90509250929050565b600181811c908216806111f157607f821691505b60208210810361120f57634e487b7160e01b5f52602260045260245ffd5b50919050565b634e487b7160e01b5f52601160045260245ffd5b808202811582820484141761055057610550611215565b8082018082111561055057610550611215565b8181038181111561055057610550611215565b5f8261128057634e487b7160e01b5f52601260045260245ffd5b500490565b601f821115610b7a57805f5260205f20601f840160051c810160208510156112aa5750805b601f840160051c820191505b818110156112c9575f81556001016112b6565b5050505050565b815167ffffffffffffffff8111156112ea576112ea6110e5565b6112fe816112f884546111dd565b84611285565b6020601f821160018114611330575f83156113195750848201515b5f19600385901b1c1916600184901b1784556112c9565b5f84815260208120601f198516915b8281101561135f578785015182556020948501946001909201910161133f565b508482101561137c57868401515f19600387901b60f8161c191681555b50505050600190811b01905550565b604081525f61139d6040830185610ff8565b9050826020830152939250505056fea26469706673582212204e94ba65b27e2c534dcee176eaeba9e9a4df821cb9197804edebf007859b0f4064736f6c634300081c0033","linkReferences":{}},"methodIdentifiers":{"allowance(address,address)":"dd62ed3e","approve(address,uint256)":"095ea7b3","balanceOf(address)":"70a08231","buy()":"a6f2ae3a","calculateToken(uint256)":"1b3d36de","calculateTokenSell(uint256)":"93d5825e","decimals()":"313ce567","feePercentage()":"a001ecdd","feeRecipient()":"46904840","getContractBalance()":"6f9fb98a","getCurrentPrice()":"eb91d37e","metadataURI()":"03ee438c","name()":"06fdde03","owner()":"8da5cb5b","renounceOwnership()":"715018a6","sell(uint256)":"e4849b32","setFeeRecipient(address)":"e74b981b","symbol()":"95d89b41","totalSupply()":"18160ddd","transfer(address,uint256)":"a9059cbb","transferFrom(address,address,uint256)":"23b872dd","transferOwnership(address)":"f2fde38b","updateMetadata(string)":"918b5be1"},"id":0}