{"abi":[{"type":"constructor","inputs":[{"name":"name_","type":"string","internalType":"string"},{"name":"symbol_","type":"string","internalType":"string"},{"name":"metadataURI_","type":"string","internalType":"string"},{"name":"initialPrice_","type":"uint256","internalType":"uint256"}],"stateMutability":"nonpayable"},{"type":"receive","stateMutability":"payable"},{"type":"function","name":"allowance","inputs":[{"name":"owner","type":"address","internalType":"address"},{"name":"spender","type":"address","internalType":"address"}],"outputs":[{"name":"","type":"uint256","internalType":"uint256"}],"stateMutability":"view"},{"type":"function","name":"approve","inputs":[{"name":"spender","type":"address","internalType":"address"},{"name":"value","type":"uint256","internalType":"uint256"}],"outputs":[{"name":"","type":"bool","internalType":"bool"}],"stateMutability":"nonpayable"},{"type":"function","name":"balanceOf","inputs":[{"name":"account","type":"address","internalType":"address"}],"outputs":[{"name":"","type":"uint256","internalType":"uint256"}],"stateMutability":"view"},{"type":"function","name":"buy","inputs":[],"outputs":[],"stateMutability":"payable"},{"type":"function","name":"calculateToken","inputs":[{"name":"amount","type":"uint256","internalType":"uint256"}],"outputs":[{"name":"","type":"uint256","internalType":"uint256"}],"stateMutability":"view"},{"type":"function","name":"calculateTokenSell","inputs":[{"name":"amount","type":"uint256","internalType":"uint256"}],"outputs":[{"name":"","type":"uint256","internalType":"uint256"}],"stateMutability":"view"},{"type":"function","name":"decimals","inputs":[],"outputs":[{"name":"","type":"uint8","internalType":"uint8"}],"stateMutability":"pure"},{"type":"function","name":"feePercentage","inputs":[],"outputs":[{"name":"","type":"uint256","internalType":"uint256"}],"stateMutability":"view"},{"type":"function","name":"feeRecipient","inputs":[],"outputs":[{"name":"","type":"address","internalType":"address"}],"stateMutability":"view"},{"type":"function","name":"getContractBalance","inputs":[],"outputs":[{"name":"","type":"uint256","internalType":"uint256"}],"stateMutability":"view"},{"type":"function","name":"getCurrentPrice","inputs":[],"outputs":[{"name":"","type":"uint256","internalType":"uint256"}],"stateMutability":"view"},{"type":"function","name":"metadataURI","inputs":[],"outputs":[{"name":"","type":"string","internalType":"string"}],"stateMutability":"view"},{"type":"function","name":"name","inputs":[],"outputs":[{"name":"","type":"string","internalType":"string"}],"stateMutability":"view"},{"type":"function","name":"owner","inputs":[],"outputs":[{"name":"","type":"address","internalType":"address"}],"stateMutability":"view"},{"type":"function","name":"renounceOwnership","inputs":[],"outputs":[],"stateMutability":"nonpayable"},{"type":"function","name":"sell","inputs":[{"name":"amount","type":"uint256","internalType":"uint256"}],"outputs":[],"stateMutability":"nonpayable"},{"type":"function","name":"setFeeRecipient","inputs":[{"name":"newRecipient","type":"address","internalType":"address"}],"outputs":[],"stateMutability":"nonpayable"},{"type":"function","name":"symbol","inputs":[],"outputs":[{"name":"","type":"string","internalType":"string"}],"stateMutability":"view"},{"type":"function","name":"totalSupply","inputs":[],"outputs":[{"name":"","type":"uint256","internalType":"uint256"}],"stateMutability":"view"},{"type":"function","name":"transfer","inputs":[{"name":"to","type":"address","internalType":"address"},{"name":"value","type":"uint256","internalType":"uint256"}],"outputs":[{"name":"","type":"bool","internalType":"bool"}],"stateMutability":"nonpayable"},{"type":"function","name":"transferFrom","inputs":[{"name":"from","type":"address","internalType":"address"},{"name":"to","type":"address","internalType":"address"},{"name":"value","type":"uint256","internalType":"uint256"}],"outputs":[{"name":"","type":"bool","internalType":"bool"}],"stateMutability":"nonpayable"},{"type":"function","name":"transferOwnership","inputs":[{"name":"newOwner","type":"address","internalType":"address"}],"outputs":[],"stateMutability":"nonpayable"},{"type":"function","name":"updateMetadata","inputs":[{"name":"newMetadataURI","type":"string","internalType":"string"}],"outputs":[],"stateMutability":"nonpayable"},{"type":"event","name":"Approval","inputs":[{"name":"owner","type":"address","indexed":true,"internalType":"address"},{"name":"spender","type":"address","indexed":true,"internalType":"address"},{"name":"value","type":"uint256","indexed":false,"internalType":"uint256"}],"anonymous":false},{"type":"event","name":"Buy","inputs":[{"name":"buyer","type":"address","indexed":true,"internalType":"address"},{"name":"amountETH","type":"uint256","indexed":false,"internalType":"uint256"},{"name":"amountToken","type":"uint256","indexed":false,"internalType":"uint256"}],"anonymous":false},{"type":"event","name":"MetadataUpdated","inputs":[{"name":"newMetadataURI","type":"string","indexed":false,"internalType":"string"}],"anonymous":false},{"type":"event","name":"OwnershipTransferred","inputs":[{"name":"previousOwner","type":"address","indexed":true,"internalType":"address"},{"name":"newOwner","type":"address","indexed":true,"internalType":"address"}],"anonymous":false},{"type":"event","name":"Sell","inputs":[{"name":"seller","type":"address","indexed":true,"internalType":"address"},{"name":"amountETH","type":"uint256","indexed":false,"internalType":"uint256"},{"name":"amoumtToken","type":"uint256","indexed":false,"internalType":"uint256"}],"anonymous":false},{"type":"event","name":"Transfer","inputs":[{"name":"from","type":"address","indexed":true,"internalType":"address"},{"name":"to","type":"address","indexed":true,"internalType":"address"},{"name":"value","type":"uint256","indexed":false,"internalType":"uint256"}],"anonymous":false},{"type":"error","name":"ERC20InsufficientAllowance","inputs":[{"name":"spender","type":"address","internalType":"address"},{"name":"allowance","type":"uint256","internalType":"uint256"},{"name":"needed","type":"uint256","internalType":"uint256"}]},{"type":"error","name":"ERC20InsufficientBalance","inputs":[{"name":"sender","type":"address","internalType":"address"},{"name":"balance","type":"uint256","internalType":"uint256"},{"name":"needed","type":"uint256","internalType":"uint256"}]},{"type":"error","name":"ERC20InvalidApprover","inputs":[{"name":"approver","type":"address","internalType":"address"}]},{"type":"error","name":"ERC20InvalidReceiver","inputs":[{"name":"receiver","type":"address","internalType":"address"}]},{"type":"error","name":"ERC20InvalidSender","inputs":[{"name":"sender","type":"address","internalType":"address"}]},{"type":"error","name":"ERC20InvalidSpender","inputs":[{"name":"spender","type":"address","internalType":"address"}]},{"type":"error","name":"OwnableInvalidOwner","inputs":[{"name":"owner","type":"address","internalType":"address"}]},{"type":"error","name":"OwnableUnauthorizedAccount","inputs":[{"name":"account","type":"address","internalType":"address"}]}],"bytecode":{"object":"0x60806040526002600a5534801561001557600080fd5b50604051611827380380611827833981016040819052610034916101c4565b338484600361004383826102ea565b50600461005082826102ea565b5050506001600160a01b03811661008157604051631e4fbdf760e01b81526000600482015260240160405180910390fd5b61008a816100b9565b506009819055600861009c83826102ea565b5050600b80546001600160a01b03191633179055506103a8915050565b600580546001600160a01b038381166001600160a01b0319831681179093556040519116919082907f8be0079c531659141344cd1fd0a4f28419497f9722a3daafe3b4186f6b6457e090600090a35050565b634e487b7160e01b600052604160045260246000fd5b600082601f83011261013257600080fd5b81516001600160401b0381111561014b5761014b61010b565b604051601f8201601f19908116603f011681016001600160401b03811182821017156101795761017961010b565b60405281815283820160200185101561019157600080fd5b60005b828110156101b057602081860181015183830182015201610194565b506000918101602001919091529392505050565b600080600080608085870312156101da57600080fd5b84516001600160401b038111156101f057600080fd5b6101fc87828801610121565b602087015190955090506001600160401b0381111561021a57600080fd5b61022687828801610121565b604087015190945090506001600160401b0381111561024457600080fd5b61025087828801610121565b606096909601519497939650505050565b600181811c9082168061027557607f821691505b60208210810361029557634e487b7160e01b600052602260045260246000fd5b50919050565b601f8211156102e557806000526020600020601f840160051c810160208510156102c25750805b601f840160051c820191505b818110156102e257600081556001016102ce565b50505b505050565b81516001600160401b038111156103035761030361010b565b610317816103118454610261565b8461029b565b6020601f82116001811461034b57600083156103335750848201515b600019600385901b1c1916600184901b1784556102e2565b600084815260208120601f198516915b8281101561037b578785015182556020948501946001909201910161035b565b50848210156103995786840151600019600387901b60f8161c191681555b50505050600190811b01905550565b611470806103b76000396000f3fe6080604052600436106101445760003560e01c80638da5cb5b116100b6578063a9059cbb1161006f578063a9059cbb14610364578063dd62ed3e14610384578063e4849b32146103ca578063e74b981b146103ea578063eb91d37e1461040a578063f2fde38b1461041f57600080fd5b80638da5cb5b146102d3578063918b5be1146102f157806393d5825e1461031157806395d89b4114610331578063a001ecdd14610346578063a6f2ae3a1461035c57600080fd5b806323b872dd1161010857806323b872dd146101ff578063313ce5671461021f578063469048401461023b5780636f9fb98a1461027357806370a0823114610286578063715018a6146102bc57600080fd5b806303ee438c1461015057806306fdde031461017b578063095ea7b31461019057806318160ddd146101c05780631b3d36de146101df57600080fd5b3661014b57005b600080fd5b34801561015c57600080fd5b5061016561043f565b6040516101729190611090565b60405180910390f35b34801561018757600080fd5b506101656104cd565b34801561019c57600080fd5b506101b06101ab3660046110bf565b61055f565b6040519015158152602001610172565b3480156101cc57600080fd5b506002545b604051908152602001610172565b3480156101eb57600080fd5b506101d16101fa3660046110e9565b610579565b34801561020b57600080fd5b506101b061021a366004611102565b6105d8565b34801561022b57600080fd5b5060405160008152602001610172565b34801561024757600080fd5b50600b5461025b906001600160a01b031681565b6040516001600160a01b039091168152602001610172565b34801561027f57600080fd5b50476101d1565b34801561029257600080fd5b506101d16102a136600461113f565b6001600160a01b031660009081526020819052604090205490565b3480156102c857600080fd5b506102d16105fc565b005b3480156102df57600080fd5b506005546001600160a01b031661025b565b3480156102fd57600080fd5b506102d161030c366004611170565b610610565b34801561031d57600080fd5b506101d161032c3660046110e9565b61065f565b34801561033d57600080fd5b506101656106ac565b34801561035257600080fd5b506101d1600a5481565b6102d16106bb565b34801561037057600080fd5b506101b061037f3660046110bf565b610896565b34801561039057600080fd5b506101d161039f366004611229565b6001600160a01b03918216600090815260016020908152604080832093909416825291909152205490565b3480156103d657600080fd5b506102d16103e53660046110e9565b6108a4565b3480156103f657600080fd5b506102d161040536600461113f565b610adc565b34801561041657600080fd5b506101d1610b50565b34801561042b57600080fd5b506102d161043a36600461113f565b610b6d565b6008805461044c9061125c565b80601f01602080910402602001604051908101604052809291908181526020018280546104789061125c565b80156104c55780601f1061049a576101008083540402835291602001916104c5565b820191906000526020600020905b8154815290600101906020018083116104a857829003601f168201915b505050505081565b6060600380546104dc9061125c565b80601f01602080910402602001604051908101604052809291908181526020018280546105089061125c565b80156105555780601f1061052a57610100808354040283529160200191610555565b820191906000526020600020905b81548152906001019060200180831161053857829003601f168201915b5050505050905090565b60003361056d818585610bab565b60019150505b92915050565b600080610584610b50565b905060006105938460026112ac565b61059d83806112ac565b6105a791906112c3565b905060006105b482610bbd565b9050600060016105c485846112d6565b6105ce91906112e9565b9695505050505050565b6000336105e6858285610c14565b6105f1858585610c93565b506001949350505050565b610604610cf2565b61060e6000610d1f565b565b610618610cf2565b60086106248282611359565b507f1c306e70c05992619e2128ad1ef88df75f36c9476282e59f51401b2abaa42e4e816040516106549190611090565b60405180910390a150565b60008061066a610b50565b9050600060028461067b84836112ac565b61068591906112d6565b6106909060016112c3565b61069a90866112ac565b6106a491906112e9565b949350505050565b6060600480546104dc9061125c565b60006106c634610579565b9050600081116107135760405162461bcd60e51b8152602060048201526013602482015272105b5bdd5b9d081a5cc81d1bdbc81cdb585b1b606a1b60448201526064015b60405180910390fd5b600061071d610b50565b9050600061072b82846112c3565b9050600060028461073c85856112c3565b6107479060016112c3565b61075191906112ac565b61075b91906112e9565b905061078560405180604001604052806006815260200165283934b1b29d60d11b81525082610d71565b6107b26040518060400160405280600b81526020016a03a37b5b2b710313abc9d160ad1b81525085610d71565b6107bc3385610dba565b80341115610855576000336107d183346112d6565b604051600081818185875af1925050503d806000811461080d576040519150601f19603f3d011682016040523d82523d6000602084013e610812565b606091505b50509050806108535760405162461bcd60e51b815260206004820152600d60248201526c1499599d5b990819985a5b1959609a1b604482015260640161070a565b505b604080513481526020810186905233917f1cbc5ab135991bd2b6a4b034a04aa2aa086dac1371cb9b16b8b5e2ed6b036bed910160405180910390a250505050565b60003361056d818585610c93565b600081116108e75760405162461bcd60e51b815260206004820152601060248201526f105b5bdd5b9d081d1bdbc81cdb585b1b60821b604482015260640161070a565b600254811061092c5760405162461bcd60e51b8152602060048201526011602482015270416d6f756e7420697320746f6f2062696760781b604482015260640161070a565b60006109378261065f565b905060006064600a548361094b91906112ac565b61095591906112e9565b9050600061096382846112d6565b905061098d604051806040016040528060068152602001652b30b63ab29d60d11b81525084610d71565b6109b660405180604001604052806007815260200166213630b731b29d60c91b81525047610d71565b80471015610a065760405162461bcd60e51b815260206004820152601e60248201527f4e6f7420656e6f7567682062616c616e636520696e20636f6e74726163740000604482015260640161070a565b610a103385610df0565b604051600090339083908381818185875af1925050503d8060008114610a52576040519150601f19603f3d011682016040523d82523d6000602084013e610a57565b606091505b5050905080610a9a5760405162461bcd60e51b815260206004820152600f60248201526e151c985b9cd9995c8819985a5b1959608a1b604482015260640161070a565b604080518681526020810184905233917fed7a144fad14804d5c249145e3e0e2b63a9eb455b76aee5bc92d711e9bba3e4a910160405180910390a25050505050565b610ae4610cf2565b6001600160a01b038116610b2e5760405162461bcd60e51b8152602060048201526011602482015270125b9d985b1a59081c9958da5c1a595b9d607a1b604482015260640161070a565b600b80546001600160a01b0319166001600160a01b0392909216919091179055565b6000600954610b5e60025490565b610b6891906112c3565b905090565b610b75610cf2565b6001600160a01b038116610b9f57604051631e4fbdf760e01b81526000600482015260240161070a565b610ba881610d1f565b50565b610bb88383836001610e26565b505050565b6000806002610bcd8460016112c3565b610bd791906112e9565b9050825b80821015610c0d575080600281610bf281876112e9565b610bfc91906112c3565b610c0691906112e9565b9150610bdb565b9392505050565b6001600160a01b03838116600090815260016020908152604080832093861683529290522054600019811015610c8d5781811015610c7e57604051637dc7a0d960e11b81526001600160a01b0384166004820152602481018290526044810183905260640161070a565b610c8d84848484036000610e26565b50505050565b6001600160a01b038316610cbd57604051634b637e8f60e11b81526000600482015260240161070a565b6001600160a01b038216610ce75760405163ec442f0560e01b81526000600482015260240161070a565b610bb8838383610efb565b6005546001600160a01b0316331461060e5760405163118cdaa760e01b815233600482015260240161070a565b600580546001600160a01b038381166001600160a01b0319831681179093556040519116919082907f8be0079c531659141344cd1fd0a4f28419497f9722a3daafe3b4186f6b6457e090600090a35050565b610db68282604051602401610d87929190611418565b60408051601f198184030181529190526020810180516001600160e01b0316632d839cb360e21b179052611025565b5050565b6001600160a01b038216610de45760405163ec442f0560e01b81526000600482015260240161070a565b610db660008383610efb565b6001600160a01b038216610e1a57604051634b637e8f60e11b81526000600482015260240161070a565b610db682600083610efb565b6001600160a01b038416610e505760405163e602df0560e01b81526000600482015260240161070a565b6001600160a01b038316610e7a57604051634a1406b160e11b81526000600482015260240161070a565b6001600160a01b0380851660009081526001602090815260408083209387168352929052208290558015610c8d57826001600160a01b0316846001600160a01b03167f8c5be1e5ebec7d5bd14f71427d1e84f3dd0314c0f7b2291e5b200ac8c7c3b92584604051610eed91815260200190565b60405180910390a350505050565b6001600160a01b038316610f26578060026000828254610f1b91906112c3565b90915550610f989050565b6001600160a01b03831660009081526020819052604090205481811015610f795760405163391434e360e21b81526001600160a01b0385166004820152602481018290526044810183905260640161070a565b6001600160a01b03841660009081526020819052604090209082900390555b6001600160a01b038216610fb457600280548290039055610fd3565b6001600160a01b03821660009081526020819052604090208054820190555b816001600160a01b0316836001600160a01b03167fddf252ad1be2c89b69c2b068fc378daa952ba7f163c4a11628f55a4df523b3ef8360405161101891815260200190565b60405180910390a3505050565b610ba88160006a636f6e736f6c652e6c6f679050600080835160208501845afa505050565b6000815180845260005b8181101561107057602081850181015186830182015201611054565b506000602082860101526020601f19601f83011685010191505092915050565b602081526000610c0d602083018461104a565b80356001600160a01b03811681146110ba57600080fd5b919050565b600080604083850312156110d257600080fd5b6110db836110a3565b946020939093013593505050565b6000602082840312156110fb57600080fd5b5035919050565b60008060006060848603121561111757600080fd5b611120846110a3565b925061112e602085016110a3565b929592945050506040919091013590565b60006020828403121561115157600080fd5b610c0d826110a3565b634e487b7160e01b600052604160045260246000fd5b60006020828403121561118257600080fd5b813567ffffffffffffffff81111561119957600080fd5b8201601f810184136111aa57600080fd5b803567ffffffffffffffff8111156111c4576111c461115a565b604051601f8201601f19908116603f0116810167ffffffffffffffff811182821017156111f3576111f361115a565b60405281815282820160200186101561120b57600080fd5b81602084016020830137600091810160200191909152949350505050565b6000806040838503121561123c57600080fd5b611245836110a3565b9150611253602084016110a3565b90509250929050565b600181811c9082168061127057607f821691505b60208210810361129057634e487b7160e01b600052602260045260246000fd5b50919050565b634e487b7160e01b600052601160045260246000fd5b808202811582820484141761057357610573611296565b8082018082111561057357610573611296565b8181038181111561057357610573611296565b60008261130657634e487b7160e01b600052601260045260246000fd5b500490565b601f821115610bb857806000526020600020601f840160051c810160208510156113325750805b601f840160051c820191505b81811015611352576000815560010161133e565b5050505050565b815167ffffffffffffffff8111156113735761137361115a565b61138781611381845461125c565b8461130b565b6020601f8211600181146113bb57600083156113a35750848201515b600019600385901b1c1916600184901b178455611352565b600084815260208120601f198516915b828110156113eb57878501518255602094850194600190920191016113cb565b50848210156114095786840151600019600387901b60f8161c191681555b50505050600190811b01905550565b60408152600061142b604083018561104a565b9050826020830152939250505056fea2646970667358221220759bec3720b71ebe9527ad30d5e1017c9a45a2eb0e59ee5e4d8ed7f5e9cf8afa64736f6c634300081c0033","linkReferences":{}},"methodIdentifiers":{"allowance(address,address)":"dd62ed3e","approve(address,uint256)":"095ea7b3","balanceOf(address)":"70a08231","buy()":"a6f2ae3a","calculateToken(uint256)":"1b3d36de","calculateTokenSell(uint256)":"93d5825e","decimals()":"313ce567","feePercentage()":"a001ecdd","feeRecipient()":"46904840","getContractBalance()":"6f9fb98a","getCurrentPrice()":"eb91d37e","metadataURI()":"03ee438c","name()":"06fdde03","owner()":"8da5cb5b","renounceOwnership()":"715018a6","sell(uint256)":"e4849b32","setFeeRecipient(address)":"e74b981b","symbol()":"95d89b41","totalSupply()":"18160ddd","transfer(address,uint256)":"a9059cbb","transferFrom(address,address,uint256)":"23b872dd","transferOwnership(address)":"f2fde38b","updateMetadata(string)":"918b5be1"},"id":1}