{"abi":[{"type":"constructor","inputs":[{"name":"initialOwner","type":"address","internalType":"address"}],"stateMutability":"nonpayable"},{"type":"function","name":"createMemeContract","inputs":[{"name":"name","type":"string","internalType":"string"},{"name":"symbol","type":"string","internalType":"string"},{"name":"metadata","type":"string","internalType":"string"},{"name":"initialPrice","type":"uint256","internalType":"uint256"},{"name":"owner","type":"address","internalType":"address"},{"name":"_salt","type":"bytes32","internalType":"bytes32"}],"outputs":[{"name":"","type":"address","internalType":"address"}],"stateMutability":"nonpayable"},{"type":"function","name":"deployedContracts","inputs":[{"name":"","type":"uint256","internalType":"uint256"}],"outputs":[{"name":"","type":"address","internalType":"address"}],"stateMutability":"view"},{"type":"function","name":"getDeployedContracts","inputs":[],"outputs":[{"name":"","type":"address[]","internalType":"address[]"}],"stateMutability":"view"},{"type":"function","name":"isActive","inputs":[],"outputs":[{"name":"","type":"bool","internalType":"bool"}],"stateMutability":"view"},{"type":"function","name":"owner","inputs":[],"outputs":[{"name":"","type":"address","internalType":"address"}],"stateMutability":"view"},{"type":"function","name":"renounceOwnership","inputs":[],"outputs":[],"stateMutability":"nonpayable"},{"type":"function","name":"transferOwnership","inputs":[{"name":"newOwner","type":"address","internalType":"address"}],"outputs":[],"stateMutability":"nonpayable"},{"type":"event","name":"ContractCreated","inputs":[{"name":"contractAddress","type":"address","indexed":false,"internalType":"address"},{"name":"owner","type":"address","indexed":false,"internalType":"address"},{"name":"salt","type":"bytes32","indexed":false,"internalType":"bytes32"}],"anonymous":false},{"type":"event","name":"FactoryDisabled","inputs":[{"name":"by","type":"address","indexed":false,"internalType":"address"}],"anonymous":false},{"type":"event","name":"OwnershipTransferred","inputs":[{"name":"previousOwner","type":"address","indexed":true,"internalType":"address"},{"name":"newOwner","type":"address","indexed":true,"internalType":"address"}],"anonymous":false},{"type":"error","name":"DeploymentFailed","inputs":[{"name":"reason","type":"string","internalType":"string"}]},{"type":"error","name":"OwnableInvalidOwner","inputs":[{"name":"owner","type":"address","internalType":"address"}]},{"type":"error","name":"OwnableUnauthorizedAccount","inputs":[{"name":"account","type":"address","internalType":"address"}]}],"bytecode":{"object":"0x60806040526002805460ff1916600117905534801561001c575f5ffd5b5060405161215a38038061215a83398101604081905261003b916100c8565b806001600160a01b03811661006957604051631e4fbdf760e01b81525f600482015260240160405180910390fd5b61007281610079565b50506100f5565b5f80546001600160a01b038381166001600160a01b0319831681178455604051919092169283917f8be0079c531659141344cd1fd0a4f28419497f9722a3daafe3b4186f6b6457e09190a35050565b5f602082840312156100d8575f5ffd5b81516001600160a01b03811681146100ee575f5ffd5b9392505050565b612058806101025f395ff3fe608060405234801561000f575f5ffd5b506004361061007a575f3560e01c80638da5cb5b116100585780638da5cb5b146100d55780639ad1ee10146100e5578063aa9a068f146100f8578063f2fde38b1461010d575f5ffd5b80631db82a9d1461007e57806322f3e2d4146100ae578063715018a6146100cb575b5f5ffd5b61009161008c36600461057d565b610120565b6040516001600160a01b0390911681526020015b60405180910390f35b6002546100bb9060ff1681565b60405190151581526020016100a5565b6100d36102f7565b005b5f546001600160a01b0316610091565b6100916100f336600461062d565b61030a565b610100610332565b6040516100a59190610644565b6100d361011b36600461068f565b610392565b5f6101296103cf565b5f6040518060200161013a906104b6565b6020820181038252601f19601f8201166040525090505f81898989888a60405160200161016b9594939291906106dd565b60408051601f1981840301815290829052610189929160200161074a565b60405160208183030381529060405290505f848251602084015ff590506001600160a01b038116610228576040516320631f9160e01b815260206004820152603760248201527f436f6e7472616374206465706c6f796d656e74206661696c65643a206372656160448201527f7465322072657475726e6564206164647265737328302900000000000000000060648201526084015b60405180910390fd5b6001805480820182555f919091527fb10e2d527612073b26eecdfd717e6a320cf44b4afac2b0732d9fcbe2b7fa0cf60180546001600160a01b0319166001600160a01b0383169081179091556040805191825233602083015281018690527ff5d7b0c2d81096a7adc1c6576d770462a68410168e19d590c55b7e4246ee40589060600160405180910390a16102ea6040518060400160405280601581526020017421b7b73a3930b1ba103232b83637bcb2b21030ba1d60591b815250826103fb565b9998505050505050505050565b6102ff6103cf565b6103085f610444565b565b60018181548110610319575f80fd5b5f918252602090912001546001600160a01b0316905081565b6060600180548060200260200160405190810160405280929190818152602001828054801561038857602002820191905f5260205f20905b81546001600160a01b0316815260019091019060200180831161036a575b5050505050905090565b61039a6103cf565b6001600160a01b0381166103c357604051631e4fbdf760e01b81525f600482015260240161021f565b6103cc81610444565b50565b5f546001600160a01b031633146103085760405163118cdaa760e01b815233600482015260240161021f565b6104408282604051602401610411929190610766565b60408051601f198184030181529190526020810180516001600160e01b031663319af33360e01b179052610493565b5050565b5f80546001600160a01b038381166001600160a01b0319831681178455604051919092169283917f8be0079c531659141344cd1fd0a4f28419497f9722a3daafe3b4186f6b6457e09190a35050565b6103cc815f6a636f6e736f6c652e6c6f6790505f5f835160208501845afa505050565b6118938061079083390190565b634e487b7160e01b5f52604160045260245ffd5b5f82601f8301126104e6575f5ffd5b813567ffffffffffffffff811115610500576105006104c3565b604051601f8201601f19908116603f0116810167ffffffffffffffff8111828210171561052f5761052f6104c3565b604052818152838201602001851015610546575f5ffd5b816020850160208301375f918101602001919091529392505050565b80356001600160a01b0381168114610578575f5ffd5b919050565b5f5f5f5f5f5f60c08789031215610592575f5ffd5b863567ffffffffffffffff8111156105a8575f5ffd5b6105b489828a016104d7565b965050602087013567ffffffffffffffff8111156105d0575f5ffd5b6105dc89828a016104d7565b955050604087013567ffffffffffffffff8111156105f8575f5ffd5b61060489828a016104d7565b9450506060870135925061061a60808801610562565b915060a087013590509295509295509295565b5f6020828403121561063d575f5ffd5b5035919050565b602080825282518282018190525f918401906040840190835b818110156106845783516001600160a01b031683526020938401939092019160010161065d565b509095945050505050565b5f6020828403121561069f575f5ffd5b6106a882610562565b9392505050565b5f81518084528060208401602086015e5f602082860101526020601f19601f83011685010191505092915050565b60a081525f6106ef60a08301886106af565b828103602084015261070181886106af565b9050828103604084015261071581876106af565b6001600160a01b039590951660608401525050608001529392505050565b5f81518060208401855e5f93019283525090919050565b5f61075e6107588386610733565b84610733565b949350505050565b604081525f61077860408301856106af565b905060018060a01b0383166020830152939250505056fe60806040526002600a55348015610014575f5ffd5b50604051611893380380611893833981016040819052610033916101b3565b808585600361004283826102f1565b50600461004f82826102f1565b5050506001600160a01b03811661007f57604051631e4fbdf760e01b81525f600482015260240160405180910390fd5b610088816100c5565b506009829055600861009a84826102f1565b50600b80546001600160a01b0319166001600160a01b0392909216919091179055506103ab92505050565b600580546001600160a01b038381166001600160a01b0319831681179093556040519116919082907f8be0079c531659141344cd1fd0a4f28419497f9722a3daafe3b4186f6b6457e0905f90a35050565b634e487b7160e01b5f52604160045260245ffd5b5f82601f830112610139575f5ffd5b81516001600160401b0381111561015257610152610116565b604051601f8201601f19908116603f011681016001600160401b038111828210171561018057610180610116565b604052818152838201602001851015610197575f5ffd5b8160208501602083015e5f918101602001919091529392505050565b5f5f5f5f5f60a086880312156101c7575f5ffd5b85516001600160401b038111156101dc575f5ffd5b6101e88882890161012a565b602088015190965090506001600160401b03811115610205575f5ffd5b6102118882890161012a565b604088015190955090506001600160401b0381111561022e575f5ffd5b61023a8882890161012a565b60608801516080890151919550935090506001600160a01b038116811461025f575f5ffd5b809150509295509295909350565b600181811c9082168061028157607f821691505b60208210810361029f57634e487b7160e01b5f52602260045260245ffd5b50919050565b601f8211156102ec57805f5260205f20601f840160051c810160208510156102ca5750805b601f840160051c820191505b818110156102e9575f81556001016102d6565b50505b505050565b81516001600160401b0381111561030a5761030a610116565b61031e81610318845461026d565b846102a5565b6020601f821160018114610350575f83156103395750848201515b5f19600385901b1c1916600184901b1784556102e9565b5f84815260208120601f198516915b8281101561037f578785015182556020948501946001909201910161035f565b508482101561039c57868401515f19600387901b60f8161c191681555b50505050600190811b01905550565b6114db806103b85f395ff3fe60806040526004361061013f575f3560e01c80638da5cb5b116100b3578063a9059cbb1161006d578063a9059cbb1461034d578063dd62ed3e1461036c578063e4849b32146103b0578063e74b981b146103cf578063eb91d37e146103ee578063f2fde38b14610402575f5ffd5b80638da5cb5b146102c1578063918b5be1146102de57806393d5825e146102fd57806395d89b411461031c578063a001ecdd14610330578063a6f2ae3a14610345575f5ffd5b806323b872dd1161010457806323b872dd146101f4578063313ce56714610213578063469048401461022e5780636f9fb98a1461026557806370a0823114610277578063715018a6146102ab575f5ffd5b806303ee438c1461014a57806306fdde0314610174578063095ea7b31461018857806318160ddd146101b75780631b3d36de146101d5575f5ffd5b3661014657005b5f5ffd5b348015610155575f5ffd5b5061015e610421565b60405161016b919061111f565b60405180910390f35b34801561017f575f5ffd5b5061015e6104ad565b348015610193575f5ffd5b506101a76101a236600461114c565b61053d565b604051901515815260200161016b565b3480156101c2575f5ffd5b506002545b60405190815260200161016b565b3480156101e0575f5ffd5b506101c76101ef366004611174565b610556565b3480156101ff575f5ffd5b506101a761020e36600461118b565b6106ad565b34801561021e575f5ffd5b506040516005815260200161016b565b348015610239575f5ffd5b50600b5461024d906001600160a01b031681565b6040516001600160a01b03909116815260200161016b565b348015610270575f5ffd5b50476101c7565b348015610282575f5ffd5b506101c76102913660046111c5565b6001600160a01b03165f9081526020819052604090205490565b3480156102b6575f5ffd5b506102bf6106d0565b005b3480156102cc575f5ffd5b506005546001600160a01b031661024d565b3480156102e9575f5ffd5b506102bf6102f83660046111f2565b6106e3565b348015610308575f5ffd5b506101c7610317366004611174565b610732565b348015610327575f5ffd5b5061015e61077e565b34801561033b575f5ffd5b506101c7600a5481565b6102bf61078d565b348015610358575f5ffd5b506101a761036736600461114c565b61095b565b348015610377575f5ffd5b506101c76103863660046112a5565b6001600160a01b039182165f90815260016020908152604080832093909416825291909152205490565b3480156103bb575f5ffd5b506102bf6103ca366004611174565b610968565b3480156103da575f5ffd5b506102bf6103e93660046111c5565b610b99565b3480156103f9575f5ffd5b506101c7610c0d565b34801561040d575f5ffd5b506102bf61041c3660046111c5565b610c29565b6008805461042e906112d6565b80601f016020809104026020016040519081016040528092919081815260200182805461045a906112d6565b80156104a55780601f1061047c576101008083540402835291602001916104a5565b820191905f5260205f20905b81548152906001019060200180831161048857829003601f168201915b505050505081565b6060600380546104bc906112d6565b80601f01602080910402602001604051908101604052809291908181526020018280546104e8906112d6565b80156105335780601f1061050a57610100808354040283529160200191610533565b820191905f5260205f20905b81548152906001019060200180831161051657829003601f168201915b5050505050905090565b5f3361054a818585610c66565b60019150505b92915050565b5f5f82116105ab5760405162461bcd60e51b815260206004820152601d60248201527f416d6f756e74206d7573742062652067726561746572207468616e203000000060448201526064015b60405180910390fd5b5f6105b4610c0d565b90505f6105c2846002611322565b6105cc8380611322565b6105d69190611339565b90506105e28280611322565b8110156106225760405162461bcd60e51b815260206004820152600e60248201526d125b9d985b1a5908185b5bdd5b9d60921b60448201526064016105a2565b5f61062c82610c78565b90505f600161063b858461134c565b610645919061135f565b90505f81116106a45760405162461bcd60e51b815260206004820152602560248201527f416d6f756e7420697320746f6f20736d616c6c20746f206d696e7420616e79206044820152643a37b5b2b760d91b60648201526084016105a2565b95945050505050565b5f336106ba858285610cce565b6106c5858585610d4a565b506001949350505050565b6106d8610da7565b6106e15f610dd4565b565b6106eb610da7565b60086106f782826113c9565b507f1c306e70c05992619e2128ad1ef88df75f36c9476282e59f51401b2abaa42e4e81604051610727919061111f565b60405180910390a150565b5f5f61073c610c0d565b90505f600260018561074e8584611322565b610758919061134c565b610762919061134c565b61076c9086611322565b610776919061135f565b949350505050565b6060600480546104bc906112d6565b5f61079734610556565b90505f81116107de5760405162461bcd60e51b8152602060048201526013602482015272105b5bdd5b9d081a5cc81d1bdbc81cdb585b1b606a1b60448201526064016105a2565b5f6107e7610c0d565b90505f6107f48284611339565b90505f60028460016108068686611339565b610810919061134c565b61081a9190611322565b610824919061135f565b905061084e60405180604001604052806006815260200165283934b1b29d60d11b81525082610e25565b61087b6040518060400160405280600b81526020016a03a37b5b2b710313abc9d160ad1b81525085610e25565b6108853385610e6e565b8034111561091a575f33610899833461134c565b6040515f81818185875af1925050503d805f81146108d2576040519150601f19603f3d011682016040523d82523d5f602084013e6108d7565b606091505b50509050806109185760405162461bcd60e51b815260206004820152600d60248201526c1499599d5b990819985a5b1959609a1b60448201526064016105a2565b505b604080513481526020810186905233917f1cbc5ab135991bd2b6a4b034a04aa2aa086dac1371cb9b16b8b5e2ed6b036bed910160405180910390a250505050565b5f3361054a818585610d4a565b5f81116109aa5760405162461bcd60e51b815260206004820152601060248201526f105b5bdd5b9d081d1bdbc81cdb585b1b60821b60448201526064016105a2565b60025481106109ef5760405162461bcd60e51b8152602060048201526011602482015270416d6f756e7420697320746f6f2062696760781b60448201526064016105a2565b5f6109f982610732565b90505f6064600a5483610a0c9190611322565b610a16919061135f565b90505f610a23828461134c565b9050610a4d604051806040016040528060068152602001652b30b63ab29d60d11b81525084610e25565b610a7660405180604001604052806007815260200166213630b731b29d60c91b81525047610e25565b80471015610ac65760405162461bcd60e51b815260206004820152601e60248201527f4e6f7420656e6f7567682062616c616e636520696e20636f6e7472616374000060448201526064016105a2565b610ad03385610ea2565b6040515f90339083908381818185875af1925050503d805f8114610b0f576040519150601f19603f3d011682016040523d82523d5f602084013e610b14565b606091505b5050905080610b575760405162461bcd60e51b815260206004820152600f60248201526e151c985b9cd9995c8819985a5b1959608a1b60448201526064016105a2565b604080518681526020810184905233917fed7a144fad14804d5c249145e3e0e2b63a9eb455b76aee5bc92d711e9bba3e4a910160405180910390a25050505050565b610ba1610da7565b6001600160a01b038116610beb5760405162461bcd60e51b8152602060048201526011602482015270125b9d985b1a59081c9958da5c1a595b9d607a1b60448201526064016105a2565b600b80546001600160a01b0319166001600160a01b0392909216919091179055565b5f600954610c1a60025490565b610c249190611339565b905090565b610c31610da7565b6001600160a01b038116610c5a57604051631e4fbdf760e01b81525f60048201526024016105a2565b610c6381610dd4565b50565b610c738383836001610ed6565b505050565b5f806002610c87846001611339565b610c91919061135f565b9050825b80821015610cc7575080600281610cac818761135f565b610cb69190611339565b610cc0919061135f565b9150610c95565b9392505050565b6001600160a01b038381165f908152600160209081526040808320938616835292905220545f19811015610d445781811015610d3657604051637dc7a0d960e11b81526001600160a01b038416600482015260248101829052604481018390526064016105a2565b610d4484848484035f610ed6565b50505050565b6001600160a01b038316610d7357604051634b637e8f60e11b81525f60048201526024016105a2565b6001600160a01b038216610d9c5760405163ec442f0560e01b81525f60048201526024016105a2565b610c73838383610fa8565b6005546001600160a01b031633146106e15760405163118cdaa760e01b81523360048201526024016105a2565b600580546001600160a01b038381166001600160a01b0319831681179093556040519116919082907f8be0079c531659141344cd1fd0a4f28419497f9722a3daafe3b4186f6b6457e0905f90a35050565b610e6a8282604051602401610e3b929190611484565b60408051601f198184030181529190526020810180516001600160e01b0316632d839cb360e21b1790526110ce565b5050565b6001600160a01b038216610e975760405163ec442f0560e01b81525f60048201526024016105a2565b610e6a5f8383610fa8565b6001600160a01b038216610ecb57604051634b637e8f60e11b81525f60048201526024016105a2565b610e6a825f83610fa8565b6001600160a01b038416610eff5760405163e602df0560e01b81525f60048201526024016105a2565b6001600160a01b038316610f2857604051634a1406b160e11b81525f60048201526024016105a2565b6001600160a01b038085165f9081526001602090815260408083209387168352929052208290558015610d4457826001600160a01b0316846001600160a01b03167f8c5be1e5ebec7d5bd14f71427d1e84f3dd0314c0f7b2291e5b200ac8c7c3b92584604051610f9a91815260200190565b60405180910390a350505050565b6001600160a01b038316610fd2578060025f828254610fc79190611339565b909155506110429050565b6001600160a01b0383165f90815260208190526040902054818110156110245760405163391434e360e21b81526001600160a01b038516600482015260248101829052604481018390526064016105a2565b6001600160a01b0384165f9081526020819052604090209082900390555b6001600160a01b03821661105e5760028054829003905561107c565b6001600160a01b0382165f9081526020819052604090208054820190555b816001600160a01b0316836001600160a01b03167fddf252ad1be2c89b69c2b068fc378daa952ba7f163c4a11628f55a4df523b3ef836040516110c191815260200190565b60405180910390a3505050565b610c63815f6a636f6e736f6c652e6c6f6790505f5f835160208501845afa505050565b5f81518084528060208401602086015e5f602082860101526020601f19601f83011685010191505092915050565b602081525f610cc760208301846110f1565b80356001600160a01b0381168114611147575f5ffd5b919050565b5f5f6040838503121561115d575f5ffd5b61116683611131565b946020939093013593505050565b5f60208284031215611184575f5ffd5b5035919050565b5f5f5f6060848603121561119d575f5ffd5b6111a684611131565b92506111b460208501611131565b929592945050506040919091013590565b5f602082840312156111d5575f5ffd5b610cc782611131565b634e487b7160e01b5f52604160045260245ffd5b5f60208284031215611202575f5ffd5b813567ffffffffffffffff811115611218575f5ffd5b8201601f81018413611228575f5ffd5b803567ffffffffffffffff811115611242576112426111de565b604051601f8201601f19908116603f0116810167ffffffffffffffff81118282101715611271576112716111de565b604052818152828201602001861015611288575f5ffd5b816020840160208301375f91810160200191909152949350505050565b5f5f604083850312156112b6575f5ffd5b6112bf83611131565b91506112cd60208401611131565b90509250929050565b600181811c908216806112ea57607f821691505b60208210810361130857634e487b7160e01b5f52602260045260245ffd5b50919050565b634e487b7160e01b5f52601160045260245ffd5b80820281158282048414176105505761055061130e565b808201808211156105505761055061130e565b818103818111156105505761055061130e565b5f8261137957634e487b7160e01b5f52601260045260245ffd5b500490565b601f821115610c7357805f5260205f20601f840160051c810160208510156113a35750805b601f840160051c820191505b818110156113c2575f81556001016113af565b5050505050565b815167ffffffffffffffff8111156113e3576113e36111de565b6113f7816113f184546112d6565b8461137e565b6020601f821160018114611429575f83156114125750848201515b5f19600385901b1c1916600184901b1784556113c2565b5f84815260208120601f198516915b828110156114585787850151825560209485019460019092019101611438565b508482101561147557868401515f19600387901b60f8161c191681555b50505050600190811b01905550565b604081525f61149660408301856110f1565b9050826020830152939250505056fea264697066735822122038f4b1e6e0a2dc93e19235b6d98a755a4cf5cdfb25c73c94389fdc86918e4ee664736f6c634300081c0033a26469706673582212200cece35d8ee6eefef615980f2fe1de1855a94473a816d8c8bcb0a9f69b73ed4d64736f6c634300081c0033","linkReferences":{}},"methodIdentifiers":{"createMemeContract(string,string,string,uint256,address,bytes32)":"1db82a9d","deployedContracts(uint256)":"9ad1ee10","getDeployedContracts()":"aa9a068f","isActive()":"22f3e2d4","owner()":"8da5cb5b","renounceOwnership()":"715018a6","transferOwnership(address)":"f2fde38b"},"id":0}